S31508000000B0120020D9000008C52E00080F290008E4
S3150800001000000000000000000000000000000000D2
S315080000200000000000000000000000003930000851
S315080000300000000000000000C72E00083B30000842
S31508000040EB00000800000000EB000008EB000008C9
S31508000050EB000008EB000008EB000008EB000008C6
S3150800006000000000510B0008610B0008EB000008B7
S3150800007075090008AD300008BD3000080000000012
S31508000080CD3000080000000000000000EB0000086A
S3150800009000000000EB000008EB000008EB00000879
S315080000A0EB000008EB000008EB000008EB00000876
S315080000B0EB0000080000000000000000000000003F
S315080000C00448854600F044FC00480047793F00088C
S315080000D0C046C046B012002004488047044800477E
S315080000E0FEE7FEE7FEE7FEE7FEE7FEE7AB300008C1
S315080000F0C100000830B50B46014600202022012425
S3150800010009E00D46D5409D4205D31D469540491B3D
S315080001102546954040191546521E002DF1DC30BD86
S31508000120F0B51FB40646002082B00546402401916A
S3150800013000901BE0019922460F46304600F098FAD7
S31508000140049A059B801A994110D3104619462246EF
S3150800015000F07EFA361A8F410197224601200021C7
S31508000160009F00F075FA38184D4100902046641E2D
S315080001700028DFDC019B00982946324607B0F0BD0F
S31508000180D2B201E00270401C491EFBD27047002221
S31508000190F6E710B513460A4604461946FFF7F0FF78
S315080001A0204610BDF8B502464A40D40F42004B001F
S315080001B052085B089A4202D20246084611464A008D
S315080001C023D0C30D4A00DDB2120EAD1A202D35DA42
S315080001D049020126490AF6058A19002C00D052421E
S315080001E020214F1B1146B9402A411018C20D9A42C8
S315080001F021D0002C17D0012D08DCDA05801AD20F81
S315080002008019D207DBB200F05FFAF8BDDA05801A6A
S31508000210012340001B06C01880185A428018CA0FCE
S315080002201043490007E04908C2071143DA05801A56
S3150800023080194008801800F03FFAF8BD61000122D5
S31508000240511A001BF7E70122D2075140AAE70122FB
S31508000250D2075040A6E7024670B54A40D30FDB07DF
S3150800026040002DD04A002AD0010E140E00021202B8
S315080002700919400A520A8418E50104465443000A3B
S31508000280120A2E045043A4194219200CC543AA1871
S31508000290120C0125AD03521C521912047F3924048D
S315080002A000D0521C104301D44000491EC2B20C06AD
S315080002B0C0092018401C4008802A02D003E000200C
S315080002C070BD40084000002900DA0020184370BDC0
S315080002D070B502464A40D50F40004A00ED0740086F
S315080002E05208002814D0002A12D0C40DD30D41029A
S315080002F00120C0055202490A520AE41A09181218BE
S315080003007D34914201D3641C00E04900002C01DAD7
S31508000310002070BD0023914201D3891A0343400887
S3150800032049000028F7D100290AD0914202D10121BB
S31508000330C90705E0914201D2012101E00121C94323
S31508000340E005C018401900F0B7F970BD420005D0A5
S315080003504200120E52428A4201DB00207047C9054C
S3150800036008187047F0B507460846584087B0C00FCA
S31508000370049048000E46590040084908BC1A8841AE
S3150800038005D2384631461E4617460B4602465800E1
S31508000390400810434DD0300D039040055900400DDC
S315080003A0490D0590401A0290402873DA1803012176
S315080003B0000B09050843019004980092002806D00E
S315080003C01146019A494200209041009101900298F5
S315080003D040210A1A0199009800F03AF905460C4698
S315080003E06B4607CB00F055F9C0197141039A0E0DFB
S315080003F00023D71756401A467A40164344D0049A23
S31508000400002A2DD0029A012A039A15DC1205C01A71
S31508000410914101263605001C7141D20F059ED2076F
S315080004200093019202962A46234600F093F907B0F4
S31508000430F0BD38463146FAE71605234A0F46B21884
S31508000440C01AB74101210905001C4F4100187F4118
S31508000450114618187941E20F10436D19644113E0EB
S31508000460E2076D0815436408C2071443039A012678
S315080004701205C01A91413605001C7141CE07400885
S3150800048030434908C01851412A46234600F055F919
S31508000490CDE7FFE7049801224000C117121A00238E
S315080004A08B4104983146C417381AA141EEE730B497
S315080004B00124E407634030BC54E730B40124E40760
S315080004C0614030BC4EE700000000E0FFF0B51FB405
S315080004D088B00B990998002448400999C00F49002B
S315080004E049080991C0070B990090490049080B91E2
S315080004F009990898A64608431CD00B990A980843F8
S3150800050018D0099801244000420D4800410D099869
S3150800051024050003000B204309900B980003000BE9
S3150800052020430B9050181C4940180022019014468D
S31508000530104605E0002001460DB0F0BD032801DA9B
S31508000540034600E003239C46C11A0AAE0AE05F0090
S3150800055008ADED5B4F00F75B7D430027AA187C4189
S31508000560491C5B1E6145F2DD410004AB5A52210469
S31508000570120C0A43240C401C0828DFDB0198029061
S315080005800099704601910090059B049A0799069870
S3150800059000F0E0F8D0E700000DFCFFFF10B50022E0
S315080005A09623114600F090F810BD00000EB50549D7
S315080005B00291002100910A460B46019100F0CAF803
S315080005C003B000BD33040000C20FD2074000400844
S315080005D00BD0C10D0723DB01C91840020905400AE3
S315080005E01143C2084007114370470020014670476F
S315080005F010B5002904DB0124E40740428C4121465A
S31508000600002B04DB1C460123DB075242A3418B4225
S3150800061000D1824210BD0000CB0FDB07490010B5A0
S31508000620490802460A4307D00A0D07240903E401CC
S31508000630090B121B002A01DC002010BDC900440F5B
S315080006400C43C100E018D205801800F035F810BD3B
S3150800065010B5202A04DB0146203A9140002010BD3F
S31508000660914020239C1A0346E3401943904010BD4D
S3150800067010B5202A04DB0846203AD040002110BDD8
S315080006800B46D340D0402024A21A9140084319466D
S3150800069010BD10B5202A06DBCB170846203A1041B4
S315080006A0C1170B4306E00B461341D0402024A21A7B
S315080006B091400843194610BD002904DA401C490038
S315080006C001D140084000704770B40024050C05D1DC
S315080006D01024000402D1002921D01124050E01D1CD
S315080006E000020834050F01D10001241D850F01D130
S315080006F08000A41C002801DB4000641C002908D0E7
S3150800070020252E1B0D46F540A14000D00121294386
S31508000710084301061B1B000ADB1D02D5002070BC1E
S315080007207047DB05181880180029F8DA401C4900BC
S31508000730F5D170BC40084000704710B5002B08DAA8
S315080007400024401C614192185B411A4301D14008BC
S31508000750400010BDF0B51FB482B005460C0003D0AA
S31508000760084602F05BFF02E002F058FF203002461E
S31508000770009021462846FFF76BFF049B059A04461E
S315080007800F4618431143084314D0184610431BD08C
S31508000790009840210A1A18460599FFF769FF054689
S315080007A00E46009A05990498FFF752FF084305D0AC
S315080007B0012004E02046394607B0F0BD0020C117E5
S315080007C005430E432C43374300990E986305401A98
S315080007D07905E40A00220C43FD0A0A3002D50020F6
S315080007E00146E9E70105101969410C9C0D9D0019A0
S315080007F06941FFF7A2FFDFE7F0B50C465C4085B01C
S31508000800E40FE40703944C00002664085900944654
S31508000810490802460296224321D062460A431ED060
S315080008206200570D4A000E032303550D01240246A4
S315080008302C492405781B1B0B360B401823432643EB
S31508000840614600901C46501AB44103D30098401CD8
S31508000850009002E0921800985B41002803DA002015
S31508000860014605B0F0BD0020012109050746864668
S3150800087011E064461D46141BB54106D36546521B56
S31508000880B341744607430C43A646CD0740084908BA
S31508000890284392185B4105460D43EAD11046184392
S315080008A013D06046194650407140084306D060464A
S315080008B0101AB34106D20122002306E000220123C2
S315080008C0DB0702E00122D243531000987446010563
S315080008D0381C6141029C039D00196941FFF72DFFF1
S315080008E0BFE70000FD0300004A0009030123090BC6
S315080008F01B0519430A4B10B5520D9A4202DA00201D
S31508000900014610BD064B34339A4203DC9A1AFFF7A8
S31508000910AFFE10BD034BD218FFF79AFE10BD0000BC
S31508000920FF030000CDFBFFFF10B5002904DB0124FF
S31508000930E40740428C412146002B04DB1C46012378
S31508000940DB075242A341994200D1904210BD0000F4
S31508000950064C0125064E05E0E36807CC2B430C3C04
S3150800096098471034B442F7D3FFF7AEFB7C41000832
S315080009709C41000810B5024800F01EFB10BD00009F
S315080009802400002010B5846AA16D502211420DD1B1
S31508000990A06D012149020843A065206802F00EF9FE
S315080009A000281BD0A07E002807D017E0A16DC90635
S315080009B024D5204600F0FFFA10BD20680168090713
S315080009C00CD502F0F7F80146012000290AD0A16DDE
S315080009D020221143A165E16D0143E165204600F03F
S315080009E0E3FA10BD21684A680C239A434A60A16D50
S315080009F0FF22013291430143A165EFE7216D496B5F
S31508000A00884710BD10B5806A816D40221143816503
S31508000A10C16D04221143C16500F0CDFA10BD10B5B1
S31508000A20806A00F0C7FA10BDF8B504460068816808
S31508000A308907CD0F02F0B6F800282AD0002D28D154
S31508000A40206881680522114010250126012914D144
S31508000A508168114A1140891C816021680320086059
S31508000A6000F0D6FE074610E000F0D2FEC01B0228B2
S31508000A700BD920688068C00707D0A06D2843A065F9
S31508000A80E06D3043E0650120F8BD20688068C00746
S31508000A90EAD10020F8BD0000E8FFFF7FF8B504465C
S31508000AA000200090206802F07DF8002845D12068D3
S31508000AB08168234A10261140002930D18168D54320
S31508000AC02940491C81601F4800680721890508409C
S31508000AD000020AD51D481C490068FFF70BFB401C9D
S31508000AE000E0401E00900028FBD1607E012824D03B
S31508000AF000F08EFE07461BE002F054F8002804D1E9
S31508000B00206881682940491C816000F081FEC01B6D
S31508000B1002280DD920680068C043C00708D0A06D18
S31508000B203043A065E06D01210843E0650846F8BD3D
S31508000B3020680168C943C907DED10020F8BD000056
S31508000B401700008008270140400D0300040000201C
S31508000B5010B5024800F0A8FC10BD0000880000206F
S31508000B6010B5034800F0A0FC024800F09DFC10BD3B
S31508000B70F80200205403002010B50446006C094909
S31508000B808008800040186064207814210838FFF730
S31508000B90B1FA04498031A164C106C90E0120884012
S31508000BA0E06410BD000802400179084B8906890EE9
S31508000BB08A00D2180265054A4432491E42658A07E8
S31508000BC0920F01219140816570470000FC080240A0
S31508000BD0F0B5846CC56C6560046D002C02D0446D5C
S31508000BE0856D65600B4C6568066C1C273E400127C1
S31508000BF0B7403D436560046863608368102B0368EB
S31508000C0003D099600068C260F0BD9A600068C16050
S31508000C10F0BD00000000024072B6FEE7F0B50446DB
S31508000C20002089B02546064640350290287D0128D1
S31508000C300ED001272F752046FFF7F6FE059020688F
S31508000C4001F0B4FF0028A06D05D01021084388E004
S31508000C50022009B0F0BDFF21013188430221084373
S31508000C60A0652068C168414A11400491C168D24311
S31508000C701140C16000212068826817239A43DB0768
S31508000C801A4382603A4A20680DE0029B5B1C029375
S31508000C90934208D3A06D0221884310210843A0651A
S31508000CA0002028754DE08368DB0FEED18030406B5D
S31508000CB0491C4006400E86190829DCD33046FFF742
S31508000CC019FA0146206882682A4B1A40521C82602B
S31508000CD020680269920F920713D1274A12680F26D5
S31508000CE0B60432400726B604B2420AD3920C3E46F0
S31508000CF0D21E96407208019600E0521E0192002A02
S31508000D00FBD18030426BD209D2010A434263206884
S31508000D1081681940891C816000F07AFD064612E058
S31508000D2000F076FD801B02280DD9206801F03EFFF1
S31508000D30002808D0A06D10210843A065E06D38434F
S31508000D40E065012085E7206801F030FF0028E7D13B
S31508000D502068C168049A1143C160A06D80088000AC
S31508000D60401CA06500202875059872E703800000DE
S31508000D7000F20200E8FFFF7F08270140704770472E
S31508000D8070477047F8B50027064604464036009770
S31508000D90307D0D4601280FD001203075206801F0FE
S31508000DA009FF00280AD0A06D20210843A065012765
S31508000DB0002030753846F8BD0220F8BD686802285C
S31508000DC07ED001222169D207914202D0121D91429A
S31508000DD006D120682968826A4903490B0A436EE0EE
S31508000DE0C206D20E0F20216E904081432868430325
S31508000DF002D0C3074BD102E04000C00E48E083078B
S31508000E0001D5012044E0430701D5022040E003074D
S31508000E1001D503203CE0C30601D5042038E083064B
S31508000E2001D5052034E0430601D5062030E0030647
S31508000E3001D507202CE0C30501D5082028E0830545
S31508000E4001D5092024E0430501D50A2020E0030541
S31508000E5001D50B201CE0C30401D50C2018E083043F
S31508000E6001D50D2014E0430401D50E2010E003043B
S31508000E7001D50F200CE0C30301D5102008E0830339
S31508000E8001D5112004E0400301D5122000E000201E
S31508000E909040014321666968E2698808401C9042CF
S31508000EA010D820682B68826A9C46C906C90E0F238B
S31508000EB08B409A4363469B001B0F8B401A4300E006
S31508000EC03BE082622168AB6828684A69000282436F
S31508000ED018404001400902434A612868002800DB9F
S31508000EE066E72B4A116807239B051940294B984248
S31508000EF014D10B0212D4C0020143104601F066FE5B
S31508000F00264825490068FFF7F5F80C21401C484398
S31508000F1000E0401E00900028FBD149E7204B98428C
S31508000F2003D1CB0101D4800205E01E4B9842D7D1EC
S31508000F304802D5D45802014325E001212069C90792
S31508000F40884202D0091D884206D120682968826A2B
S31508000F504903490B8A43826228680028C0DA0C4A8A
S31508000F60116807239B0519400A4B984201D1C00214
S31508000F7008E00B4B984201D1800203E0094B9842E6
S31508000F80AED140028143104601F020FE10E7000072
S31508000F9008270140001000B0400D0300040000209F
S31508000FA0004000B8002000B40149012008707047CD
S31508000FB00000002070477047F8B5044600680668C8
S31508000FC04568B0070FD5A8070DD5A06DC00604D48F
S31508000FD0A06D0121C9020843A0652046FFF7CFFE90
S31508000FE0216802200860474F700701D5680703D4B7
S31508000FF0300728D5280726D5A06DC00604D4A06DCD
S31508001000012149020843A065206801F0D7FD0028A0
S3150800101013D0A07E002810D12068016809070CD5D6
S3150800102001F0C8FD01460120002960D0A16D2022EB
S315080010301143A165E16D0143E1652046FFF7B4FF61
S3150800104021680C20086030060CD528060AD5A06D44
S31508001050012109040843A065204600F065F92168C6
S3150800106080200860F0050BD5E80509D5A06D01219B
S3150800107049040843A0652046FFF782FE20680760FA
S31508001080B0050DD5A8050BD5A06D01218904084327
S31508001090A0652046FFF775FE01202168400208601A
S315080010A0F00618D5E80616D5206B002804D0206867
S315080010B0C0688007800F0BD0A06D01218902084304
S315080010C0A065E06D02210843E0652046FFF773FF3F
S315080010D0216810200860B00408D5A80406D5204663
S315080010E0FFF74CFE0120216840030860F8BD21681F
S315080010F04A680C239A434A60A16DB9430143A16526
S315080011009BE7000000010000FEB500270446019792
S315080011103E4602970097002805D02546A06D203543
S31508001120002802D007E00120FEBD204600F0FEF8A8
S31508001130E6655420065520688168C900C90F12D192
S315080011408168724A11400122120711438160714871
S315080011506F490068FEF7CEFF4000801C00E0401E85
S3150800116000900028FBD120688168C900C90F08D102
S31508001170A16D10221143A165E16D01221143E165BC
S31508001180174601F017FDA16DC90601D4002804D041
S31508001190A06D10210843A065B4E0A06DFF210131C0
S315080011A0884302210843A065206801F0FBFC00285B
S315080011B06DD1217EA06889030843617ECA03A17E9A
S315080011C04B031A431043226B002A01D00122120353
S315080011D01043E26810432269002A02DA52005208D4
S315080011E001E00122520510432A7B52001043019A5E
S315080011F010432A78012A09D1002922D0A16D20227C
S315080012001143A165E16D01221143E165616A002977
S3150800121006D0FF23C1331940A26A0143104608438A
S315080012202168CA683C4B1A400243CA606168029A40
S31508001230890F8907E06C0A4310432A7F012A04D0E4
S315080012400CE0012109040843E0E7636C226C491CA1
S315080012501A43A36C0B4311461943084321680A69CC
S315080012602E4B1A4002430A610321606889078842A7
S315080012700DD0590788420AD04900884207D0284A23
S3150800128091680F239B0499431840014391600021FC
S31508001290626B206801F0A1FC2249A26B206801F06C
S315080012A09CFC0F202169C04300291CD0012252054D
S315080012B091420AD121688A6A227F9200121FD206B9
S315080012C0D20E9040226E1043886220684069616B96
S315080012D04007400F88420BD1E665A06D8008800064
S315080012E0401CA0650FE021688A6A02438A62ECE71F
S315080012F0A06D0221884310210843A065E06D0121F5
S315080013000843E06501273846FEBD0000E8FFFF7F79
S31508001310400D0300040000200102DEFF02FCFF1F4F
S315080013200027014004FFFF077047000070B58CB026
S31508001330064614216846FEF72AFF182105A8FEF777
S3150800134026FF2849306888424AD1012080030025B3
S315080013500590099505A800F0C5FB002801D0FFF700
S315080013605BFC21480268012109050A4302600068FE
S3150800137008400B901C484038416B012211434163D9
S31508001380406B694610400B90402000900320019066
S3150800139005200295000700F08DF9154C13482060CA
S315080013A0A5600520E56060608020206140006061DE
S315080013B08000A0612020E06103200003206220460F
S315080013C000F0CEF8002801D0FFF726FC346500228D
S315080013D011460C20A66200F05BFB0C2000F04CFBCB
S315080013E00CB070BD002401404010024008000240C5
S315080013F088000020F7B50446006801F0DBFB0028EA
S3150800140045D125464035287D012840D001272F752E
S315080014102068C1681F4EC9070CD101F0C3FB00281C
S3150800142004D0206881683140891C81602068C168C1
S315080014303943C1602046FFF731FB002826D1A06D4D
S3150800144015490840FF2101310843A0650020E065E1
S31508001450226D1249D162226D11491163226D11491B
S31508001460516322681C211160287520684168102282
S31508001470114341602168206D4031029B019A00F0BA
S31508001480C1F821688A683240121D8A60FEBD0220B2
S31508001490FEBD0000E8FFFF7FFEF1FFFF850900089B
S315080014A01F0A0008050A0008F0B42C490C680268EF
S315080014B01368056C1C273D400426AE40264211D011
S315080014C05E070FD513689B0603D4146804239C4350
S315080014D014604B68046C04223C40A24013434B60E2
S315080014E0016B1CE00227AF40064627402036002F36
S315080014F019D09F0717D513689B0605D413680A24C5
S31508001500A3431360012272714B68046C1C221440B9
S315080015100222A24013434B6000213171C16A00299F
S315080015201AD0F0BC08470827AF40274214D01B073B
S3150800153012D513680E24A34313604B68046C1C224F
S31508001540144001221546A5402B434B60C2637271B5
S3150800155000213171416BE2E7F0BC704700000240A0
S3150800156070B504003FD02548256814212818FEF7D1
S31508001570C1FD800020640220264620367071286846
S315080015801F4908402860E168A06862690843216924
S3150800159011430843A1690843E1690843216A0843DE
S315080015A021680A68104308602046FFF7E5FA01211A
S315080015B0A06889030025884200D165602079616C9E
S315080015C08006800E0860A06CE16C41606068401E71
S315080015D003280AD82046FFF7E7FA206D0560606DF4
S315080015E0A16D416004E0012070BD25656565A565AE
S315080015F0E563012070713571002070BDF8FFFDBFED
S315080016000F80FFFFF8B504468C4620300179002587
S3150800161001290BD00126067141790027012907D037
S315080016208021E163077101252846F8BD0220F8BD2F
S3150800163002214171E7632068016849084900016091
S3150800164061462046FFF7C4FA206B00282068016827
S3150800165001D00E2205E0042291430160206801684A
S315080016600A2211430160606C0168CA03074902D562
S3150800167002680A430260206D002802D002680A4305
S3150800168002602068016831430160CDE7000100006F
S3150800169070B5044600F0BCF80546601C02D0044844
S315080016A00078241800F0B4F8401BA042FAD370BDA5
S315080016B008000020F0B5002303249AE02A460125F5
S315080016C09D402A407ED00E79B607B60F012E01D06E
S315080016D0022E16D186682746B4465E00B646B7403F
S315080016E06646BE43B446CF687646B7406646374335
S315080016F087604668AE430D79ED06ED0F9D4035438C
S3150800170045600D79ED43AD0708D0C5685F002646EC
S31508001710BE40B5438E68BE402E43C6600D79AD0700
S31508001720AD0F022D0ED1DD08AD002D18AC462D6A81
S315080017305E07F60E0F27B740BD430F69B7402F4324
S3150800174065462F6205685F002646BE40B5430E799A
S31508001750B607B60FBE402E4306604D68AD03AD0F03
S3150800176046D09E08264DB6007519AC462D6E9E07C6
S31508001770F60E0F27B740BD4305273F07B84201D1EC
S3150800178000270FE01F4FB84201D101270AE01E4F7C
S31508001790B84201D1022705E01C4FB84201D1032700
S315080017A000E00527B7402F43154D664637662D6876
S315080017B04E689543F60200D51543114F3D607D6886
S315080017C0954300E014E04E68B60200D515437D60E7
S315080017D00B4D80356E684F689643BF0300D5164398
S315080017E06E602E684F689643FF0300D516432E6039
S315080017F05B1C0A681546DA4000D05FE7F0BD0000BA
S31508001800001802400004005000080050000C005068
S3150800181001488068704700000800002070B502463D
S3150800182040325378202B1CD11378012B19D0012371
S31508001830137024245470046825689D432560046841
S3150800184025681E03B5432560046825680D43256091
S31508001850006801681943016020205070002010704C
S3150800186070BD022070BD70B5024640325378202BF9
S315080018701BD11378012B18D001241470242353701C
S3150800188003681D68A5431D6005682B680F26360288
S31508001890B3430902194329600068016821430160BE
S315080018A0202050700020107070BD022070BD00000E
S315080018B070B5040006D0254640356878002600280D
S315080018C002D005E0012070BD2E70204600F04EF8CB
S315080018D024206870206801684908490001600F21C2
S315080018E06068090688432168086121688A680120BA
S315080018F0C00382438A60E1680129A1682FD02122AA
S3150800190092021143226891600121E268C902022A03
S315080019102268536825D08B43536021684A68124B66
S315080019201A434A602168CA688243CA6061692069A5
S315080019300843A169090208432168C860216AE06969
S315080019400843216808602068016801221143016084
S315080019506664202068702663AE70002070BD01435F
S31508001960D0E70B43D8E700000080000210B586B028
S31508001970044614216846FEF70AFC12492068884284
S315080019801ED1114C606B012108436063606B0840EF
S3150800199005900320C00200901220019000200290BA
S315080019A0039006200490052069460007FFF782FE8B
S315080019B0E16B012080050143E163E16B014005917C
S315080019C006B010BD00580040001002400248816869
S315080019D002788918816070470800002010B5084809
S315080019E000240168821511430160032000F00AF8FB
S315080019F0002801D0012401E000F028F8204610BD97
S31508001A000020024070B50F4E0024317805460029A3
S31508001A1015D07D20C000FEF76DFB01460A48006818
S31508001A20FEF768FB00F0F6FB002808D1042D06D265
S31508001A3000222946401E00F02BF8756000E00124BC
S31508001A40204670BD080000200400002008B509489B
S31508001A5001680122114301600068104000900548A2
S31508001A604038C26B01040A43C263C06B0840009049
S31508001A7008BD000040100240002805DBC106C90E5B
S31508001A8001208840014908607047000000E100E035
S31508001A9010B501F0DBFD10BD10B50F4C216803220F
S31508001AA05202914301432160C11FFF39FA390ED111
S31508001AB00A480621006848430949FEF71BFB401CF3
S31508001AC002E0002805D0401E61694905F9D40020C6
S31508001AD010BD032010BD0000007000400400002067
S31508001AE040420F00F8B50446006800264D4D8003B5
S31508001AF058D54C4800274038C06BC00009D449481F
S31508001B004038C26B01040A43C263C06B0840012710
S31508001B10009045480168821511430160FFF778FE79
S31508001B20009005E0FFF774FE0099401A022825D8B0
S31508001B303D480068C005F5D5E86903210902084053
S31508001B400FD0616981420CD0E86903210902EA696C
S31508001B508843012109040A43EA61EA698A43EA617A
S31508001B60E861C0070FD0FFF753FE009008E0FFF7C3
S31508001B704FFE0099411A2D48814201D9032609E0F2
S31508001B80E8698007F3D5E869032109028843616992
S31508001B900843E861002F05D022484038C26B01048B
S31508001BA08A43C2632078C00705D0686961688008DF
S31508001BB08000084368612078800606D56869032195
S31508001BC009038843A168084368612088400411D541
S31508001BD068692169800080080843686101212069D5
S31508001BE08907884206D10F484038C1680122120485
S31508001BF01143C1602088000512D56869032189034D
S31508001C008843E168084368610121E06889038842DE
S31508001C1006D104484038C168012212041143C16044
S31508001C203046F8BD4010024000700040881300009E
S31508001C30F8B50F46060043D04D4D28684007400FBB
S31508001C40B84213D22868C008C00038432860FFF796
S31508001C50DFFD044605E0FFF7DBFD011B4548814231
S31508001C6061D828684007400FB842F4D13068424C22
S31508001C7081070DD5400704D5A06807210903084345
S31508001C80A060A0680F2109028843B1680843A060D4
S31508001C903078C00732D0706801280AD002280BD0E5
S31508001CA000280FD03449403103280ED0C969890766
S31508001CB004E02168890301E021688901002906DB1F
S31508001CC00120F8BD21684905F8E7096AEFE7A16828
S31508001CD0C908C9000143A160FFF79AFD009006E014
S31508001CE0FFF796FD0099411A224881421BD8A06841
S31508001CF0382108407168C9008842F1D12868400730
S31508001D00400FB84217D91A480168C908C9003943AB
S31508001D100160FFF77DFD054607E0FFF779FD411BEA
S31508001D201448814201D90320F8BD114800684007CC
S31508001D30400FB842F1D13078400706D5A068072190
S31508001D4009038843F1680843A06000F031F8A168E8
S31508001D503C2289091140094A515CC906C90EC84086
S31508001D600749086007480068FFF74CFEF8BD000001
S31508001D70002002408813000000100240544000086A
S31508001D80040000200C0000200648074900688968FE
S31508001D90064A4904490F8900515CC906C90EC8405C
S31508001DA0704700000400002000100240944000081C
S31508001DB010B5204CA068204A8006400F16D0A068AF
S31508001DC08006410F501001290FD0A1688906490FD6
S31508001DD0022912D0A0688006400F042823D0A068E4
S31508001DE08006400F032821D0002010BD206801215D
S31508001DF08004400F8140104612E0E1688B07E168D5
S31508001E009B0F4906490F491C032B00D01046FEF7C5
S31508001E1071F9E1684904490E4843E168490F491CCC
S31508001E20FEF768F910BD0120C00310BD7D20000231
S31508001E3010BD0000001002400024F400F8B50400AC
S31508001E407ED020783827C007E94D002846D0A868F4
S31508001E50E96838408907890F102802D008280BD06E
S31508001E6001E0032908D001206268000482420AD1F1
S31508001E7029680143296015E0286880032ED5606823
S31508001E800028DDD02AE0052301211B0489049A4293
S31508001E902A6802D10A432A60EAE782432A60286848
S31508001EA088432860606800280CD0FFF7B1FC064616
S31508001EB004E0FFF7ADFC801B642873D8286880030C
S31508001EC0F7D50BE0FFF7A4FC064604E0FFF7A0FCF5
S31508001ED0801B6428F1D828688003F7D42078800707
S31508001EE069D5A868E96838408A070721920FC902A8
S31508001EF0102802D0002813D001E0022A10D0E0688A
S31508001F00002846D02868884321690843286028683D
S31508001F10FF21013108432860FFF77AFC06462CE0CA
S31508001F202A68520502D5E268002A89D06A687F23A2
S31508001F301B029A4363691B021A436A60002800E081
S31508001F408DE00ED1286888432169084328602868EF
S31508001F5001218004400F8140A648FEF7CBF8A64928
S31508001F600860A6480068FFF74DFD002877D122E0F3
S31508001F70FFF74EFC801B02289FD828684005F7D536
S31508001F8068687F2109028843616909020843686015
S31508001F9011E02968FF20013081432960FFF738FCEA
S31508001FA0064605E098E0FFF733FC801B022884D834
S31508001FB028684005F7D42078914E00072ED5A868E2
S31508001FC08006400F03280AD0A0690028306A16D078
S31508001FD0012108433062FFF71BFC07460BE0306A15
S31508001FE080071BD5A06900289FD017E0FFF710FCD3
S31508001FF0C01B022870D8306A8007F7D50EE0400863
S3150800200040003062FFF704FC074604E0FFF700FCD7
S31508002010C01B022860D8306A8007F7D420784007AA
S315080020206CD5A86800278006400F042818D0E86BEE
S31508002030C00008D4E96B012000070143E963E96B96
S315080020400140012700916F480168C90519D4016844
S31508002050821511430160FFF7DBFB00900DE083E07A
S31508002060F06980074AD5A06800287DD046E0FFF7CA
S31508002070CFFB0099401A02282ED862480068C0058E
S31508002080F5D5A168012910D004200529F16911D0D8
S3150800209049084900F161F1698143F161A0680028A6
S315080020A016D0FFF7B5FB00900EE0F0690121084352
S315080020B0F061F3E70143F161F7E7FFF7A9FB009940
S315080020C0411A5148814265D8F0698007F5D50EE076
S315080020D0FFF79EFB009007E05CE0FFF799FB00998D
S315080020E0411A4948814255D8F0698007F5D4002F2E
S315080020F004D0E96B012000078143E963E069002801
S3150800210073D0A9688906490F02294DD001263606DB
S315080021100228286805D0B0432860FFF779FB0446F3
S315080021203AE0B0432860FFF773FB074604E0FFF781
S315080021306FFBC01B02282DD828688001F7D4616A76
S31508002140206AA26A0843E16A120211430843216B16
S315080021500843E9682D4A11400843E8602868304377
S315080021602860E868012100E03DE009070843E860C7
S31508002170FFF74EFB044604E0FFF74AFB001B022864
S3150800218008D828688001F7D52FE0FFF741FB001B28
S31508002190022801D90320F8BD28688001F5D4E8682B
S315080021A01B490840E86020E00128F4D0E868226A64
S315080021B08107890F914216D17021626A01409142C6
S315080021C011D17F21A26A09020140120291420AD165
S315080021D01F214904E26A0140914204D1400F216B54
S315080021E04007884201D00120F8BD0020F8BD000054
S315080021F0001002400024F400040000200C00002017
S315080022004010024000700040881300008C80C11FF7
S31508002210FCFFFEEF094910B5401E884201D901208E
S3150800222010BD074C60610321081F01F00FFA00205A
S31508002230A06107202061002010BD0000FFFFFF00FD
S3150800224000E000E07047704770470000F0B50346AD
S3150800225020331A7F012A24D001221A7702225A77BC
S3150800226004686268A568104FBC4205D116460F225D
S31508002270120596434A6832437026B2430E681643DF
S3150800228066600068B84202D0084A904204D18022AB
S31508002290896895432943816001205877002018777B
S315080022A0F0BD0220F0BD0000002C014000040040F3
S315080022B070B5040005D025462035687F002802D071
S315080022C006E0012070BD00202877204600F016F8A9
S315080022D002206877211D206800F000FF01224034A3
S315080022E02272AA77EA7722706270A270E27022716F
S315080022F06271A271E2716A77002070BD08B5006844
S315080023001749884216D117480268C1140A43026061
S31508002310006800220840009011460D20FFF7B8FB20
S315080023200D20FFF7A9FB002211460E20FFF7B0FB90
S315080023300E2011E00C49884210D10A484038C26B79
S3150800234002210A43C263C06B00220840009011466E
S315080023501020FFF79DFB1020FFF78EFB08BD00003D
S31508002360002C014040100240000400400146203184
S315080023704A7F012A01D00120704702224A77016864
S31508002380CB6801221343CB6000680949884202D012
S315080023900849884207D18168074B1940062905D0A4
S315080023A0DB1F994202D00168114301600020704783
S315080023B0002C01400004004007000100F8B505465E
S315080023C004462035287F0026012817D001272F77B5
S315080023D002206877226890682F4B1840FF231B025B
S315080023E0984390600868502838D00EDC20284FD0D3
S315080023F006DC00284CD010281ED149E00220F8BD82
S31508002400302845D0402817D13AE060282ED07028C9
S3150800241018D001221203801A0FD090420CD1CB6833
S315080024204A688968206800F09DFE20688168012254
S3150800243092031143816000E001266F770020287718
S315080024403046F8BDCB684A688968206800F08AFE7D
S3150800245021688868772210438860EEE7CA68496869
S31508002460206800F095FE5021206806E0CA68496891
S31508002470206800F09EFE6021206800F07FFEDCE701
S31508002480CA684968206800F083FE40212068F4E79E
S31508002490226801461046F0E788FFCEFF7047000025
S315080024A0F8B504460068C66805690027A907002923
S315080024B013DAB10711D5F91E0161012020772068CA
S315080024C080698007204602D0FFF7E8FF04E000F0A5
S315080024D08BF8204600F089F82777680716D5700725
S315080024E014D504202168C04308610220207720689B
S315080024F080698005800F204602D0FFF7CFFF04E0F1
S3150800250000F072F8204600F070F82777280715D5EE
S31508002510300713D508202168C043086104202077B6
S315080025202068C0698007204602D0FFF7B7FF04E09D
S3150800253000F05AF8204600F058F82777E80616D52E
S31508002540F00614D510202168C043086108202077BA
S315080025502068C0698005800F204602D0FFF79EFFDD
S3150800256004E000F041F8204600F03FF82777E80736
S3150800257008D0F00706D001202168C043086120462C
S3150800258000F034F8280601D4A80407D5300605D586
S315080025902168134808612046FFF755FEE80507D568
S315080025A0300605D521680F4808612046FFF74AFE20
S315080025B0680608D5700606D540202168C04308611C
S315080025C0204600F014F8A80608D5B00606D520203F
S315080025D02168C04308612046FFF736FEF8BD0000B3
S315080025E07FDFFFFFFFFEFFFF7047704770477047AA
S315080025F010B5014680310A79012A15D001220A71DF
S3150800260024228A60026813681468640864001460E7
S315080026100122520793430022426600680360202085
S3150800262088600A71104610BD022010BD70B50446B8
S3150800263005468034207901281AD0012020712420EB
S31508002640A060286806680268520852000260286876
S31508002650826807235B069A430A438260284600F08D
S31508002660BBFD286806602020A0600020207170BD90
S31508002670022070BD70B504460546803420790128CD
S3150800268019D0012020712420A060286806680268F5
S3150800269052085200026028688268D200D2080A43AB
S315080026A08260284600F098FD286806602020A06011
S315080026B00020207170BD022070BD70B5040005D0E1
S315080026C025468035A868002802D006E0012070BD9E
S315080026D000202871204600F027F82420A8602068EA
S315080026E00168490849000160A06A002802D020460E
S315080026F000F094FD204600F085FE0128E7D020680A
S3150800270041680922D20291434160206881682A22E1
S3150800271091438160206801680122114301602046C7
S3150800272000F0E2FD70BD0000F0B58DB0064614213C
S315080027306846FDF72CFD182105A8FDF728FD3A4A3D
S3150800274031680120394D02270024914236D105907F
S31508002750069405A8FFF7C6F9002801D0FEF75CFA2B
S31508002760324840300268012189030A430260006842
S3150800277008400B90686B38436863686B029438406E
S315080027800B90C0200090039469460197049428484A
S31508002790FEF790FF284D27482860332068601020F0
S315080027A0EC60A8606C61AC61EC6180202C622861E9
S315080027B0284631E0F567AE620DB0F0BD1F4A91427A
S315080027C0FAD1EA6B012149040A43EA63EA6B0A4033
S315080027D00B92696B01436963696B0490C907C90F5A
S315080027E00B910C21009105200294019703946946E8
S315080027F00007FEF75FFF0F480F4D14305C35286061
S31508002800352068601020EC60A8606C61AC61EC61F2
S3150800281080202C6228612846FEF7A2FE0028C9D02F
S31508002820FEF7FAF9C6E7000000380140001002403A
S31508002830000400501C000240F8020020004400403A
S31508002840FFB5064604468036B06883B00D46202894
S3150800285002D0022007B0F0BD002D0CD00598002844
S3150800286009D00120A1680003814206D12069002809
S3150800287003D1E80701D00120ECE7002030612120D0
S31508002880B060FEF7C5FF0190274640370598B88225
S315080028900598F8820120A1680003814202D12069C7
S315080028A0002802D00295002515E00020029012E0CB
S315080028B000228021204600F059FE002818D10298EF
S315080028C0002819D02168007888620298401C029076
S315080028D0F88A401EF882F88A019B0028069800901C
S315080028E0E6D100224021204600F040FE00280AD00A
S315080028F02020B0600320ADE728882168C005C00DF8
S315080029008862AD1CE4E72020B0600020A2E7FEE75D
S31508002910F8B547A000F072FE4CA000F06FFE5248D2
S31508002920FEF77CF9040001D050A014E056A000F090
S3150800293065FE5B48FFF71AFD040001D059A00AE0BE
S3150800294061A000F05BFE022265494748FEF752FD8A
S31508002950040004D063A000F051FE2046F8BD6BA029
S3150800296000F04CFE7D20C000FEF792FE6FA000F03E
S3150800297045FE794C20780028FDD059484088FDF757
S315080029800DFE0646754845892846FDF707FE744933
S31508002990FDF761FC3146FDF79BFCFDF715FE024687
S315080029A00B4629466FA000F029FE20784C4C0025DE
S315080029B0241F009000980028FCD0494821880788E1
S315080029C0791821804088FDF7E9FD06466348408965
S315080029D0FDF7E4FD6249FDF73EFC3146FDF778FC5C
S315080029E006463846FDF7DAFD3146FDF734FC0B217D
S315080029F0C943FDF7ABFCA168FDF7D4FB6D1CEDB22E
S31508002A00A060642DD6D364212088FDF773FB0546A4
S31508002A1020806249A068FDF75BFCA060FDF7D4FD45
S31508002A2002460B465E48009500F0E8FD0020F8BD1A
S31508002A305B494E464F5DE5889DE5A78BE58C965329
S31508002A404D55E9858DE7BDAE210D0A005B494E4619
S31508002A504F5D20414443E6A0A1E58786E5BC80E5B5
S31508002A60A78B210D0A000000240000205B45525266
S31508002A704F525D20414443E6A0A1E58786E5A4B10F
S31508002A80E8B4A5210D0A00005B4F4B5D2041444385
S31508002A90E6A0A1E58786E5AE8CE68890210D0A00BA
S31508002AA0840100205B4552524F525D20E5AE9AE6FE
S31508002AB097B6E599A8E590AFE58AA8E5A4B1E8B484
S31508002AC0A5210D0A000000005B4F4B5D20E5AE9A7C
S31508002AD0E697B6E599A8E590AFE58AA8210D0A001C
S31508002AE0180000205B4552524F525D20414443E88E
S31508002AF0BF9EE7BBADE8BDACE68DA2E5BC80E5A709
S31508002B008BE5A4B1E8B4A5210D0A00005B4F4B5D27
S31508002B1020414443E8BF9EE7BBADE8BDACE68DA2C5
S31508002B20E5BC80E5A78B210D0A0000005B494E46EF
S31508002B304F5D20E5BC80E5A78BE8AFBBE58F96E641
S31508002B409A97E58589E4B88BE79A84E794B5E58E84
S31508002B508B210D0A0000000000000020A075FF1F51
S31508002B60000040405B494E464F5D2041444320E506
S31508002B708F82E88083E794B5E58E8BE6A0A1E5878A
S31508002B8086E580BCE4B8BA307825582C20564444EB
S31508002B90413A25303466200D0A0000000000C8427C
S31508002BA0DC4000088068C007C00F70478068C0070F
S31508002BB0C00F704780684007C00F7047C06800059F
S31508002BC0800F01D000207047012070470268072354
S31508002BD09B059A430A430260704710B5436904246B
S31508002BE0214007248C40A3438A401343436110BD08
S31508002BF03EB500242148009401941F4902940160BF
S31508002C00012184600905C4604160042549004561C5
S31508002C1001610476447684760221C1610146203139
S31508002C2013220C70920142622A02826201220A73FE
S31508002C3013034263036382630C77C464FEF764FA82
S31508002C40002801D0FDF7E8FF0D4800900194694679
S31508002C5002940A48FEF796F8002801D0FDF7DCFF33
S31508002C6008480090694601950448FEF78BF8002845
S31508002C7001D0FDF7D1FF3EBD00240140240000200D
S31508002C8040000018002000B408B50C48816B0122EA
S31508002C9011438163806B03211040009000220920B4
S31508002CA0FEF7F6FE0920FEF7E7FE002202210A20BB
S31508002CB0FEF7EEFE0A20FEF7DFFE08BD0010024012
S31508002CC008B50848426B02210A434263426B0A4030
S31508002CD00092416B012211434163406B1040009002
S31508002CE008BD00000010024010B5134811490160E4
S31508002CF012494160002181600161416181610122BF
S31508002D00C161C2600162FEF7D3FD002801D0FDF75C
S31508002D1083FF00210848FEF781FD002801D0FDF752
S31508002D207BFF00210448FEF79EFD002801D0FDF731
S31508002D3073FF10BD00580040E4000020BC7D7010F1
S31508002D4010B588B000240594069419480394049491
S31508002D50009401941549029401603F218460416002
S31508002D60046131214461C16080218161FFF7A0FAC5
S31508002D70002801D0FDF750FF01200003039003A9A6
S31508002D800B48FFF71BFB002801D0FDF745FF012084
S31508002D90400501900094694602940548FFF756FAE3
S31508002DA0002801D0FDF738FF08B010BD002C0140FF
S31508002DB03801002010B588B0002400940194174803
S31508002DC002940394049405941349069401603F21E0
S31508002DD084604160046131218461C160FFF768FA4B
S31508002DE0002801D0FDF718FF01200003009069466E
S31508002DF00A48FFF7E3FA002801D0FDF70DFF202067
S31508002E00049004A906940548FFF720FA002801D083
S31508002E10FDF702FF08B010BD000400408401002041
S31508002E2010B5184816490160E121490241600021A0
S31508002E308160C16001618161C16101620C224162E8
S31508002E4042618162FFF739FC002801D0FDF7E4FEF4
S31508002E5000210C48FFF70EFC002801D0FDF7DCFE28
S31508002E6000210848FFF7E2FB002801D0FDF7D4FE51
S31508002E700448FFF7BDFB002801D0FDF7CDFE10BDC5
S31508002E8000380140D001002010B50D480B490160FB
S31508002E90E1214902416000218160C16001618161CF
S31508002EA0C16101620C22416242618162FFF705FC41
S31508002EB0002801D0FDF7B0FE10BD00000044004018
S31508002EC064020020FEE77047F0B504460D46002070
S31508002ED085B0014603C403C5083C2060083D606010
S31508002EE024E04A480088FDF761FB0022484BFDF7BD
S31508002EF0EDFA064645480F46001D0088FDF756FBC5
S31508002F0032463B46FDF774FB02D2002005B0F0BD01
S31508002F103E48001D0188206842003E4881522168CB
S31508002F206068491C0022504121606060084661685B
S31508002F300022401F9141D4D3052134480026418000
S31508002F40354800780028FBD030480088FDF72EFB6E
S31508002F5000222F4BFDF7BAFA07462C480091001DB0
S31508002F600088FDF723FB3A46009BFDF741FB01D29B
S31508002F70761CF6B2052E32D003CC083C0022401C43
S31508002F805141224F03C43F1D7888083CFDF706FBD4
S31508002F90009022484089FDF701FB2149FDF75BF9BE
S31508002FA00099FDF795F900903F883846FDF7F6FA3F
S31508002FB00099FDF750F90B21C943FDF7C7F9FDF74D
S31508002FC003FB0CCD083DFDF7CDF903C50F49114AA2
S31508002FD048884300401CD7524880083DB0E711A0F6
S31508002FE000F00CFB03CC06460C4614220023FDF722
S31508002FF097F802900096019403910CCD0D48083D70
S3150800300000F0FCFA03CDFDF707FB7FE7140000206C
S315080030100000F83FB003002000000020A075FF1F45
S3150800302000004040E5BFABE997A8E585B3E997AD51
S315080030300D0A000028410008704710B5FEF7C6FCC7
S3150800304010BD30B591B034216846FDF7A0F80025CB
S3150800305001200D950E950F9540021095FEF71CFD63
S315080030600224E001039000944020059008200A906D
S3150800307080030B900794000304950C900995089417
S315080030806846FEF7DBFE002801D072B6FEE7072089
S315080030900DA931C102210DA81095FEF7C9FD00281A
S315080030A001D072B6FEE711B030BD704710B50248C0
S315080030B0FFF7F6F910BD00003801002010B50248E8
S315080030C0FFF7EEF910BD00003801002010B50248E0
S315080030D0FFF7E6F910BD00008401002070B502680C
S315080030E01B4B1C4E984201D0B04203D17024A24318
S315080030F04C682243184C194D984208D0B04206D065
S31508003100174EB04203D0A04201D0A84204D10326EC
S315080031103602B243CE6832438026B2434E69324302
S3150800312002608A68C2620A688262984203D0A04234
S3150800313001D0A84201D109690163012141610169F0
S31508003140C90703D0016949084900016170BD00003B
S31508003150002C0140000400400044014000480140A2
S315080031600020004030B58468FF252D021B0213435A
S31508003170AC430B432343836030BD00008268034B96
S315080031801A400A4307210A43826070478FFFCFFF20
S3150800319030B5036A046A6408640004628469F02529
S315080031A0AC43120122430A24A3430B438261036200
S315080031B030BD30B5046A036A1025AB4303628369E0
S315080031C00F252D031203AB431A43A0239C43090181
S315080031D021438261016230BDF8B50446416E403430
S315080031E0002915D000688168806809014D0F0A4ECC
S315080031F0400F3746315C083F385CC000FCF77AFF61
S315080032006085785D715DC000FCF774FF2085F8BDA8
S3150800321001206085FAE70000D440000810B5018D4A
S31508003220090707D501684A680123DB039A43836BBC
S315080032301A434A60018DC90707D001684A68012305
S315080032405B049A43C36A1A434A60018D890707D506
S3150800325001684A6801231B049A43036B1A434A60B0
S31508003260018D490707D501684A6801239B049A43DB
S31508003270436B1A434A60018DC90607D502689168EF
S3150800328001231B039943C36B19439160018D89067A
S3150800329007D501688A6801235B039A43036C1A43BE
S315080032A08A60018D490612D503685A680121090505
S315080032B0446C8A4322435A60426C8A4207D10268A8
S315080032C0516803235B059943836C19435160018D4B
S315080032D0090607D501684A680123DB04C06C9A43CE
S315080032E002434A6010BD0000FEB50546002680353B
S315080032F004462E61FEF78CFA0190206800682027A4
S315080033000007002817DA25480090002239042046CD
S31508003310019B00F02BF900280DD0EFF31080012156
S3150800332081F3108821680A6880239A430A6080F32B
S315080033301088AF6028E020680068400727D517483E
S3150800334000900121002289052046019B00F00EF914
S3150800335000281CD0EFF31080012181F31088216822
S315080033600A68FF2321339A430A6080F31088EFF333
S315080033701080012181F3108821688A68520852005A
S315080033808A6080F31088EF602E710320FEBDAF605F
S31508003390EF60E66626672E710020FEBDFFFFFF017F
S315080033A010B5EFF31081012282F3108802681368C2
S315080033B0FF242134A343136081F31088EFF31081AF
S315080033C0012282F31088026893680D4C23409360AB
S315080033D081F31088C16E01290BD1EFF31081012208
S315080033E082F31088026813681024A343136081F3DC
S315080033F0108820228C210A500021C166416710BD21
S31508003400FEFFFFEFF8B5044680682169E2690843C4
S315080034106169002511432268084311684B4B19401E
S315080034200143116020684168032212039143E26850
S3150800343011434160A169206A084321688A68444BA0
S315080034401A4002438A602068C16A626A090909014A
S315080034501143C1623F492068884211D13E484069FC
S315080034608007800F0FD0012806D0022802D0032833
S315080034700BD103E0022109E0042107E0082105E059
S315080034803649884201D1002100E010210120E36974
S31508003490C003334A334E344F834227D1002906D01E
S315080034A0022907D0042907D008293FD108E0FEF7EA
S315080034B06BFC03E0104603E0FEF77AFC00283AD0DE
S315080034C0616A4900715AFCF715FE616840004A08AE
S315080034D08018FCF70FFE01461039B94226D8224952
S315080034E0491C01400007400F084322E0002906D086
S315080034F0022907D0042907D0082917D108E0FEF7C2
S3150800350043FC03E0104603E0FEF752FC002812D005
S31508003510616A4900715AFCF7EDFD61684A0880182E
S31508003520FCF7E8FD01461039B94201D9012502E048
S3150800353080B22168C8602046012140304185018556
S3150800354000206067A0672846F8BD0000F369FFCF32
S31508003550FFF4FF11003801404010024000440040CB
S315080035600024F400B4400008EFFF0000FFB581B066
S3150800357005460E46044680350A9F32E0781C30D050
S31508003580FEF746F90499401AB84218D8002F16D003
S3150800359020680168490724D5802E22D0402E20D0E5
S315080035A0C169C94309070CD4082606622046FFF7F5
S315080035B0F7FE2E6100202871012005B0F0BD03201A
S315080035C0FBE7C069C04300050BD401202168C0028F
S315080035D008622046FFF7E4FE2020286100202871B3
S315080035E0EDE72068C1693046884305D00021039875
S315080035F08142C3D00020E0E70121F8E70FB410B5F7
S3150800360003A9044B044A029800F00CF910BC08BC44
S3150800361004B01847613F0008200000202021020C52
S3150800362001D010211046020A01D0104608390209B5
S3150800363001D01046091F820801D01046891E42088B
S3150800364001D0881E7047081A704700008307FF22BA
S31508003650DB0E9A408907090E9940002808DB830883
S3150800366009489B001B181868904308431860704760
S315080036700007000F0838830804489B001B18D86900
S3150800368090430843D861704700E400E000ED00E08D
S3150800369002E008C8121F08C1002AFAD1704770470D
S315080036A0002001E001C1121F002AFBD1704700006B
S315080036B0F0B51FB486B00998089A030D0021024395
S315080036C014D05148514A1818504305141198012826
S315080036D010981AD0281A401C00264D4F4D490096BE
S315080036E001910490002812DA444211E0119801244D
S315080036F049A3012801D11098C1430698119A8460FC
S315080037000360C26041600BB0F0BD4042E4E7044686
S31508003710210500203F4A001C51410391029012E006
S31508003720E00707D032463B4601990098FCF7CEFEE3
S315080037300191009032463B4610461946FCF7C6FEF4
S3150800374006460F466410002CEAD10498039B00280D
S31508003750029A0999089806DAFCF7B8FE019B009ABE
S31508003760FCF7B4FE05E0FDF747F8019B009AFDF764
S3150800377043F804460E460022284BFDF7D5F803D831
S315080037800020C043014607E00022254B204631466B
S31508003790FCF7E8FDFDF7A8F8102409E0002C0ADB81
S315080037A00A220023FCF7BCFC079B30321A55641E1C
S315080037B002460A43F2D11122641C079B121B1C19EC
S315080037C0119B012B03D0012308430ED10AE00843BD
S315080037D004D0112010900020119077E71098151A40
S315080037E06D1E0BE01098824202DD00236D1C03E07B
S315080037F0824201DA00236D1E002BEED0069811993D
S315080038008260C16030C07EE701FCFFFF104D0000FA
S31508003810000014400000F03F300000000000F043B4
S315080038200000E03FFFB597B0064600251BE22528B5
S3150800383076D100242746F749049400E00443761C11
S3150800384032780120203A90400842F7D130782A2869
S315080038500ED00222307801463039092916D8049943
S315080038600A235943303940181443761C0490F1E76B
S31508003870189802C804911890002904DA0120400318
S3150800388004434842049002200443761C30782E28CC
S3150800389014D1042004437078761C2A2809D1189874
S315080038A0761C80C8189009E00A214F43303FC71993
S315080038B0761C3078014630390929F5D930786C28D4
S315080038C010D006DC4C281AD068280ED06A2817D1E2
S315080038D004E0742813D07A2812D110E0012040059C
S315080038E004430CE00121090501E0032109050C4305
S315080038F07178814203D1012000052418761C761CB4
S31508003900307866280BD013DC58287DD009DC0028CF
S315080039107BD04528F6D04628F4D047281AD1A9E105
S3150800392018E0632835D0642870D0652812D1A1E143
S3150800393070286CD008DC6728F1D069287DD06E28FD
S315080039400DD06F2806D1BCE073282ED0752873D009
S31508003950782859D01A9A199990476D1C82E1600205
S31508003960400F022809D003280DD0042818980168AA
S315080039700DD00D60001D189074E11898EA170168BB
S315080039800D604A60F6E7189801680D80F2E70D7039
S31508003990F0E718986A4601781172001D1890002001
S315080039A0507202A80090012005E0189802C81890E5
S315080039B000200091C04361070ED5002101E001995E
S315080039C0491C0191B94213DA8142F8DB019A009940
S315080039D0895C0029F3D10BE0002101E00199491C1B
S315080039E001918142FADB019A0099895C0029F5D197
S315080039F0019904981A9B471A21463846199A00F0E5
S31508003A0099FA4019019903E051E030E115E050E0D8
S31508003A10451807E0009800990078491C00911A9A01
S31508003A20199990470198401E0190401CF2D12146F1
S31508003A3038461A9B199A12E137E00A2000210090AD
S31508003A4001916002410F022907D0189A01CA1892FB
S31508003A50C2179446032908D00AE01898C01DC10861
S31508003A60C90005C91891944607E000B2C2179446E2
S31508003A70042902D140B2C1178C46002261469445FA
S31508003A8006DA0A460021404291418C462D2102E081
S31508003A90210504D52B216A461173012103E0E107AC
S31508003AA001D02021F7E7029156E00A200AE010200B
S31508003AB008E0102000900021042004430191082703
S31508003AC003E008200021019100906002410F0229BD
S31508003AD007D0189A01CA189200229446032908D0DA
S31508003AE008E01898C01DC108C90005C91891944670
S31508003AF003E080B2042900D1C0B200210291210757
S31508003B002AD531780D91702906D0009A1021019B8B
S31508003B104A401A4305D00EE040216A461173012136
S31508003B2008E06146014306D030216A4611730D99B3
S31508003B30517302210291009A0821019B4A401A43B7
S31508003B400AD16146014301D1610705D530216A468C
S31508003B50117301217F1E02913178582904D02EA1B4
S31508003B600E910DA90D910DE030A1F9E76146019B73
S31508003B70009AFCF7D5FA0E9B8C469B5C0D9A521E52
S31508003B800D92137061460143F0D10D9805A9081AE4
S31508003B9020300190600703D501200004844300E02B
S31508003BA001270198874201DD381A00E000200199B3
S31508003BB000904118029809180498401A0490E003E6
S31508003BC006D421461A9B199A049800F0B3F94519A8
S31508003BD0002706E003A81A9AC05D199990476D1C3C
S31508003BE07F1C02988742F5DBE0030CD521461A9B19
S31508003BF0199A049800F09EF9451904E01A9A30209B
S31508003C00199990476D1C0099481E00900029F5DC0B
S31508003C101FE00000092801003031323334353637C9
S31508003C2038396162636465660000000030313233FA
S31508003C30343536373839414243444546000000009A
S31508003C400D980D990078491C0D911A9A1999904763
S31508003C506D1C0199481E01900029F1DC4DE100F028
S31508003C6059F94519761C3078002800D0DFE5284632
S31508003C701BB0F0BD600700D406271898C01DC10800
S31508003C80C90048680A680831C30FDB07189119008C
S31508003C9001D09CA108E0210501D59BA104E0E1071C
S31508003CA001D09AA100E09AA14300109130785B08F0
S31508003CB065280CD006DC452809D046281DD047289B
S31508003CC041D141E0662818D067283CD13CE0002164
S31508003CD0112F01DB112000E0781C0191009008A942
S31508003CE011A8FFF7E5FC139905910021119A159281
S31508003CF07F1C12980197009150E00120C00703909D
S31508003D000120019008A9009711A8FFF7D1FC139A82
S31508003D10149905920022119B009212981593059A00
S31508003D200192002901D0104602E0791C4018019042
S31508003D30381A01D5019804E04042401E0090781CCC
S31508003D400190C01B029043E0012F00DA01270021F1
S31508003D50112F01DD112000E038460191009008A9D5
S31508003D6011A8FFF7A5FC13990591119A002112983D
S31508003D7015920091019721070CD40599B94201DBE8
S31508003D80019900E00191012904DD159A491E515C4B
S31508003D90302906D0B84201DA011D05DA012102915F
S31508003DA015E00199491EEDE7002805DC0099411840
S31508003DB000910199091A03E0019A411C914200DD1C
S31508003DC001910099401A401C02900120C0070390F7
S31508003DD0200706D402990198814202DB0020C043DD
S31508003DE0029000206946C87707AF01210398033778
S31508003DF0C907884224D0022011902B2012900398DC
S31508003E0000280CDA404203902D20129007E00A2180
S31508003E100398FCF76FF930317F1E039039701199BA
S31508003E20481E11900029F2DC03980028EFD1791E6C
S31508003E30129808703078202108404530BF1E387027
S31508003E4006A8C01BC01D039010980078002800D053
S31508003E500120019941180298C017091803980918F2
S31508003E600498401A401E0490E00306D421461A9B83
S31508003E70199A049800F05EF84519109800780028F9
S31508003E8003D01A9A199990476D1CE00324D5214648
S31508003E901A9B199A049800F04DF845191CE00098E9
S31508003EA0002807DB00990598884203DD1598405CD1
S31508003EB0199901E0199930201A9A904700986D1CB3
S31508003EC0401C00900298401E0290002804D11A9ABD
S31508003ED02E20199990476D1C0199481E01900029BA
S31508003EE0DDDC05E038781A9A7F1C199990476D1C15
S31508003EF00399481E03900029F4DC21461A9B199A57
S31508003F000498ACE62D0000002B00000020000000FD
S31508003F1000000000F8B5044600251E46174688042A
S31508003F2004D405E039462020B0476D1C641EF9D537
S31508003F302846F8BDFFB50446002581B01E46C803CD
S31508003F4001D5302700E02027880404D505E0384647
S31508003F500399B0476D1C641EF9D5284605B0F0BD17
S31508003F6013B5FF23012269460248FEF769FC00984B
S31508003F701CBD0000D001002086B0002000900190F2
S31508003F8002900390FDF72AFDFFF75BF8FEF798FE0F
S31508003F90FEF77AFEFEF72CFEFEF776FFFEF7A4FE86
S31508003FA0FEF73EFFFEF7CCFEFEF704FF11A0FFF773
S31508003FB025FBFEF7ADFC69460874087C002803D08B
S31508003FC014A0FFF71BFBFEE71AA0FFF717FB204C10
S31508003FD0002520780028FCD02570694602A8FEF73F
S31508003FE073FFFCF7F1FA0022134601910090FCF7E3
S31508003FF0FFFAEEE75B4F4B5D20E7B3BBE7BB9FE5F8
S31508004000889DE5A78BE58C96E68890E58A9F210D25
S315080040100A0000005B4552524F525D20534D55E54C
S31508004020889DE5A78BE58C96E5A4B1E8B4A5210D96
S315080040300A0000005B4F4B5D20534D55E5889DE512
S31508004040A78BE58C96E68890E58A9F210D0A0000E5
S315080040500000002000000000000000000000000032
S315080040600000000000000000000000000000000042
S31508004070000000000100000002000000030000002C
S315080040800400000006000000070000000800000009
S315080040900900000000000000000000000000000009
S315080040A000000000010000000200000003000000FC
S315080040B004000000010002000400060008000A00CF
S315080040C00C001000200040008000000101010103DF
S315080040D00701000008040204080101015B4F4B5D5B
S315080040E020E8AFBBE58F96E69A97E58589E4B88B15
S315080040F0E79A84E794B5E58E8BE5AE8CE68890EF73
S31508004100BC8CE69A97E58589E4B88BE79A84E794A8
S31508004110B5E58E8BE4B8BA3A252E346656207C204F
S3150800412030782558210D0A00E5BFABE997A8E6893E
S3150800413093E5BC80E58589E5BCBAE7A7AFE588863F
S315080041403A202567EFBC8CE68993E5BC80E697B6EE
S31508004150E997B4E8AEA1E695B0E4B8BA3A20256C7A
S315080041606C75EFBC8CE68993E5BC80E697B6E99753
S31508004170B43A20256C6C756D730D0A009C410008D5
S31508004180000000202400000090360008C041000806
S31508004190240000208C120000A03600080000000051
S315080041A00024F400010000000400000000000000E4
S315080041B000000000000000000000000000000000F1
S705080000C131
