:020000040800F2
:10000000B81D0020D9000008D53A0008C733000801
:1000100000000000000000000000000000000000E0
:100020000000000000000000000000006D3C00081F
:100030000000000000000000D93A00086F3C0008F2
:10004000EB00000800000000EB000008EB000008D7
:10005000EB000008EB000008EB000008EB000008D4
:1000600000000000C10B0008D10B0008EB000008E5
:1000700091090008F13C0008013D00080000000063
:10008000113D00080000000000000000EB00000827
:1000900000000000EB000008EB000008EB00000887
:1000A000EB000008EB000008EB000008EB00000884
:1000B000EB0000080000000000000000000000004D
:1000C0000448854600F052FC00480047914D000866
:1000D000C046C046B81D0020044880470448004779
:1000E000FEE7FEE7FEE7FEE7FEE7FEE7ED3C000881
:1000F000C100000830B50B46014600202022012433
:1001000009E00D46D5409D4205D31D469540491B4B
:100110002546954040191546521E002DF1DC30BD94
:1001200070B500242546002801DA01244042002948
:1001300001DA01254942FFF7DDFFAC4200D0404221
:10014000002C00D0494270BDF0B51FB40646002017
:1001500082B005464024019100901BE0019922469F
:100160000F46304600F02AFA049A059B801A9941FE
:1001700010D310461946224600F010FA361A8F4165
:100180000197224601200021009F00F007FA38184D
:100190004D4100902046641E0028DFDC019B009842
:1001A0002946324607B0F0BDD2B201E00270401CD1
:1001B000491EFBD270470022F6E710B513460A46E7
:1001C00004461946FFF7F0FF204610BDF8B5024679
:1001D0004A40D40F42004B0052085B089A4202D2B8
:1001E0000246084611464A0023D0C30D4A00DDB23C
:1001F000120EAD1A202D35DA49020126490AF605FC
:100200008A19002C00D0524220214F1B1146B940C0
:100210002A411018C20D9A4221D0002C17D0012D6E
:1002200008DCDA05801AD20F8019D207DBB200F0A1
:10023000F1F9F8BDDA05801A012340001B06C01849
:1002400080185A428018CA0F1043490007E0490835
:10025000C2071143DA05801A80194008801800F09F
:10026000D1F9F8BD61000122511A001BF7E7012204
:10027000D2075140AAE70122D2075040A6E7024622
:1002800070B54A40D30FDB0740002DD04A002AD07A
:10029000010E140E000212020919400A520A8418B3
:1002A000E50104465443000A120A2E045043A419DF
:1002B0004219200CC543AA18120C0125AD03521C8B
:1002C000521912047F39240400D0521C104301D467
:1002D0004000491EC2B20C06C0092018401C40084C
:1002E000802A02D003E0002070BD400840000029B1
:1002F00000DA0020184370BD70B502464A40D50FA1
:1003000040004A00ED0740085208002814D0002A97
:1003100012D0C40DD30D41020120C0055202490A7A
:10032000520AE41A091812187D34914201D3641C50
:1003300000E04900002C01DA002070BD002391424A
:1003400001D3891A0343400849000028F7D1002946
:100350000AD0914202D10121C90705E0914201D2A0
:10036000012101E00121C943E005C018401900F056
:1003700049F970BDF0B507460846584087B0C00F30
:10038000049048000E46590040084908BC1A8841AC
:1003900005D2384631461E4617460B4602465800DF
:1003A000400810434DD0300D039040055900400DDA
:1003B000490D0590401A0290402873DA1803012174
:1003C000000B09050843019004980092002806D00C
:1003D0001146019A494200209041009101900298F3
:1003E00040210A1A0199009800F0D8F805460C46F9
:1003F0006B4607CB00F0F3F8C0197141039A0E0D5C
:100400000023D71756401A467A40164344D0049A20
:10041000002A2DD0029A012A039A15DC1205C01A6F
:10042000914101263605001C7141D20F059ED2076D
:100430000093019202962A46234600F031F907B054
:10044000F0BD38463146FAE71605234A0F46B21882
:10045000C01AB74101210905001C4F4100187F4116
:10046000114618187941E20F10436D19644113E0E9
:10047000E2076D0815436408C2071443039A012676
:100480001205C01A91413605001C7141CE07400883
:1004900030434908C01851412A46234600F0F3F87A
:1004A000CDE7FFE7049801224000C117121A00238C
:1004B0008B4104983146C417381AA141EEE730B495
:1004C0000124E407634030BC54E730B40124E4075E
:1004D000614030BC4EE700000000E0FF10B5002294
:1004E0009623114600F096F810BD4100400201220B
:1004F000400AD205090E80187F2901DA00207047D2
:10050000962903DC9622511AC840704796398840D4
:100510007047C20FD207400040080BD0C10D07231F
:10052000DB01C91840020905400A1143C20840070F
:1005300011437047002001467047000010B50029A4
:1005400004DB0124E40740428C412146002B04DBFC
:100550001C460123DB075242A3418B4200D1824259
:1005600010BD0000CB0FDB07490010B5490802465B
:100570000A4307D00A0D07240903E401090B121BE3
:10058000002A01DC002010BDC900440F0C43C1004B
:10059000E018D205801800F035F810BD10B5202AFB
:1005A00004DB0146203A9140002010BD91402023F9
:1005B0009C1A0346E3401943904010BD10B5202A11
:1005C00004DB0846203AD040002110BD0B46D34042
:1005D000D0402024A21A91400843194610BD10B5FE
:1005E000202A06DBCB170846203A1041C1170B43DF
:1005F00006E00B461341D0402024A21A9140084344
:10060000194610BD002904DA401C490001D14008F8
:100610004000704770B40024050C05D1102400047C
:1006200002D1002921D01124050E01D10002083485
:10063000050F01D10001241D850F01D18000A41CEC
:10064000002801DB4000641C002908D020252E1B57
:100650000D46F540A14000D0012129430843010681
:100660001B1B000ADB1D02D5002070BC7047DB0598
:10067000181880180029F8DA401C4900F5D170BC20
:1006800040084000704710B5002B08DA0024401CD9
:10069000614192185B411A4301D14008400010BDEE
:1006A000F0B51FB482B005460C0003D0084603F035
:1006B0009FFE02E003F09CFE20300246009021469F
:1006C0002846FFF76BFF049B059A04460F46184324
:1006D0001143084314D0184610431BD00098402102
:1006E0000A1A18460599FFF769FF05460E46009A53
:1006F00005990498FFF752FF084305D0012004E054
:100700002046394607B0F0BD0020C11705430E430F
:100710002C43374300990E986305401A7905E40A83
:1007200000220C43FD0A0A3002D500200146E9E709
:100730000105101969410C9C0D9D00196941FFF7D5
:10074000A2FFDFE7F0B51FB488B00B990998002429
:1007500048400999C00F490049080991C0070B9901
:100760000090490049080B9109990898A64608434A
:100770001CD00B990A98084318D00998012440000E
:10078000420D4800410D099824050003000B204349
:1007900009900B980003000B20430B9050181C4944
:1007A0004018002201901446104605E00020014642
:1007B0000DB0F0BD032801DA034600E003239C4698
:1007C000C11A0AAE0AE05F0008ADED5B4F00F75BAF
:1007D0007D430027AA187C41491C5B1E6145F2DD60
:1007E000410004AB5A522104120C0A43240C401C51
:1007F0000828DFDB01980290009970460191009073
:10080000059B049A07990698FFF74AFFD0E7000076
:100810000DFCFFFFF0B50C465C4085B0E40FE4072B
:1008200003944C0000266408590094464908024687
:100830000296224321D062460A431ED06200570D21
:100840004A000E032303550D012402462C492405BA
:10085000781B1B0B360B4018234326436146009040
:100860001C46501AB44103D30098401C009002E08B
:10087000921800985B41002803DA0020014605B079
:10088000F0BD0020012109050746864611E06446B7
:100890001D46141BB54106D36546521BB341744631
:1008A00007430C43A646CD07400849082843921841
:1008B0005B4105460D43EAD11046184313D060460C
:1008C000194650407140084306D06046101AB341A3
:1008D00006D20122002306E000220123DB0702E00A
:1008E0000122D2435310009874460105381C61411F
:1008F000029C039D00196941FFF7C5FEBFE7000098
:10090000FD0300004A0009030123090B1B051943DD
:100910000A4B10B5520D9A4202DA0020014610BD72
:10092000064B34339A4203DC9A1AFFF747FE10BD98
:10093000034BD218FFF732FE10BD0000FF0300008A
:10094000CDFBFFFF10B5002904DB0124E407404282
:100950008C412146002B04DB1C460123DB0752425D
:10096000A341994200D1904210BD0000064C0125E0
:10097000064E05E0E36807CC2B430C3C9847103447
:10098000B442F7D3FFF7A0FBBC4F0008DC4F0008D0
:1009900010B5024800F014FC10BD00002800002033
:1009A00070B50546AC6AA06D50210840002831D1D1
:1009B000A06D012149020843A065206802F0C1FE34
:1009C000002823D0A07E002820D1206800680821BC
:1009D000084008281AD1206802F0ADFE00280DD189
:1009E000206840680C21884321684860A06DFF2181
:1009F0000131884301210843A06507E0A06D202153
:100A00000843A065E06D01210843E065204600F041
:100A1000CFFB0CE0A06D10210840002803D0204639
:100A200000F0CDFB03E0206D416B2846884770BD88
:100A300070B50546AC6AA06D40210843A065E06D25
:100A400004210843E065204600F0B9FB70BD70B595
:100A50000446A56A284600F0B1FB70BD70B5044697
:100A6000206802F04BFE0646206802F04DFE00288A
:100A700037D0002E35D12068806805210840012834
:100A800006D1206802F024FE03202168086009E0F6
:100A9000A06D10210843A065E06D01210843E065C9
:100AA000012070BD01F0E4F8054614E001F0E0F823
:100AB000401B02280FD920688068C007C00F00289B
:100AC00009D0A06D10210843A065E06D0121084305
:100AD000E0650120E5E720688068C007C00F0028B6
:100AE000E4D10020DDE7000038B504460020009086
:100AF000206802F009FE002858D1206880682C493F
:100B00000840002809D0A06D10210843A065E06DC1
:100B100001210843E065012038BD206802F0E0FDB6
:100B2000244802F0E5FD0121C905084000280DD048
:100B3000214922480068FFF7DDFA401C009002E0DE
:100B40000098401E009000980028F9D1607E01288E
:100B50002CD001F08DF805461FE0206802F0D4FD8E
:100B6000002802D1206802F0BBFD01F081F8401B93
:100B7000022812D920680068C007C00F0121484030
:100B80004840002809D1A06D10210843A065E06D00
:100B900001210843E0650120BEE720680068C00726
:100BA000C00F0121484048400028D6D00020B3E7BC
:100BB0001700008008270140400D030010000020AE
:100BC00010B5024800F0FCFD10BD00008C000020B4
:100BD00010B5034800F0F4FD024800F0F1FD10BD2F
:100BE000FC0200205803002070B50446206C8008E9
:100BF00080000949401860642178084608381421AB
:100C0000FFF778FA054604488030A064E906C90E6B
:100C100001208840E06470BD00080240027991061E
:100C2000890E4A1E9200064BD2180265044A4032D1
:100C300042654A1E93079B0F01229A4082657047C6
:100C40000009024070B5856CC46C6C60046D002CAA
:100C500002D0456D846D6C600C4C64681C26056C7C
:100C600035400126AE403443084D6C600468636033
:100C70008468102C04D10468A2600468E16003E079
:100C80000468A1600468E26070BD000000000240DA
:100C900072B600BFFEE70000F0B585B00446002044
:100CA0000390002500BF5420005D012802D10220DE
:100CB00005B0F0BD01215420015500BF2046FFF7CB
:100CC000CDFE0490206802F027FD00287ED1A06DA3
:100CD000FF210131884302210843A0652068C068D4
:100CE0005449084002902068C068C9430840216800
:100CF000C860002628E0206881684F4A114012072A
:100D00008918816000BF13E00398401C03904B4991
:100D1000039888420CD3A06D022188431021084318
:100D2000A06500BF00215420015500BF0120BFE78E
:100D300020688168C90F0029E6D12068B4210958CC
:100D40004906490E4D19761C082ED4D33146284643
:100D5000FFF7D0F9054620688168374A1140491CE1
:100D6000816000BF20680169890F8907002919D1B6
:100D700000BF334807680F2189040F4000BF0720D8
:100D8000800487420ED3B80CC01E0121814000911F
:100D900000984008009002E00098401E00900098E3
:100DA0000028F9D12068B4210958C909C90129438B
:100DB000B422115000BF206881681F4A1140891C6D
:100DC000816000BF00F054FF019015E026E000F0C4
:100DD0004FFF0199401A02280ED9206802F09CFCAE
:100DE000002809D0A06D10210843A065E06D012105
:100DF0000843E06501205BE7206802F08DFC0028D5
:100E0000E5D12068C068029908432168C860A06DD8
:100E10000221884301210843A06503E0A06D102151
:100E20000843A06500BF00215420015500BF04986D
:100E30003EE7000003800000E8FFFF7F00F20200B1
:100E4000082701407047704770477047F0B585B07C
:100E500005460C460020039002900121C90728692D
:100E6000884203D0091D2869884200D100E000BFF4
:100E700000BF5420405D012802D1022005B0F0BD22
:100E800001215420415500BF286802F054FC00287D
:100E900076D16068022874D00121C9072869884288
:100EA00003D0091D2869884208D128682168826A10
:100EB0004B035B0B1A43826200BFC6E02179CA066E
:100EC000D20E0F219140286E884321684903490BB7
:100ED000002905D11F22920621681140890E92E057
:100EE0002178C907C90F002901D000218BE0022217
:100EF00021681140022901D1012184E004222168E6
:100F00001140042901D102217DE00822216811400D
:100F1000082901D1032176E010222168114010290F
:100F200001D104216FE0202221681140202901D144
:100F3000052168E0402221681140402901D10621A5
:100F400061E0802221681140802901D107215AE007
:100F5000FF22013221681140914201D1082152E063
:100F60000122520221681140914201D109214AE037
:100F70000122920221681140914203D10A2142E0EC
:100F8000FAE0BAE00122D20221681140914201D177
:100F90000B2138E00122120321681140914201D156
:100FA0000C2130E00122520321681140914201D10D
:100FB0000D2128E00122920321681140914201D1C4
:100FC0000E2120E00122D20321681140914201D17B
:100FD0000F2118E00122120421681140914201D131
:100FE000102110E00122520421681140914201D1E8
:100FF000112108E00122920421681140914201D19F
:10100000122100E000212279D206D20E914008433D
:10101000286660688008401CE969884215D82868FD
:10102000226861680192836ACF06FF0E0F22BA40E0
:1010300093430F27BF06019A3A40920ECF06FF0E48
:10104000BA401343836200BF00BF28682168009143
:10105000A16801914269009909028A4300990B0233
:101060004C4F019939400B401A43426100BF206840
:10107000C00FC007002821D0474802F039FB0646C0
:101080004649206888421AD1C0023040002816D153
:10109000C80230430146404802F066FB40494148DF
:1010A0000068FFF727F8401C0C214843029002E03B
:1010B0000298401E029002980028F9D162E03A4955
:1010C000206888420AD180023040002806D1880278
:1010D00030430146304802F047FB53E03349206873
:1010E00088424FD14002304000284BD14802304363
:1010F0000146294802F038FB44E00121C90728696C
:10110000884203D0091D2869884208D128682168CF
:10111000826A4B035B0B9A43826200BF00BF206868
:10112000C00FC00700282DD01B4802F0E1FA064688
:101130001A492068884207D1C202304690430146CE
:10114000154802F011FB1DE017492068884207D1BD
:1011500082023046904301460F4802F005FB11E041
:101160001249206888420DD1420230469043014620
:10117000094802F0F9FA05E0A86D20210843A865A6
:101180000120039000BF00215420415500BF039867
:1011900074E6000000FFFF0708270140001000B0C0
:1011A000400D030010000020004000B8002000B4F3
:1011B0000121014A117070470000002070477047FC
:1011C000F8B50446002720680568206846680220B4
:1011D0002840022811D1304002280ED1A06D1021E4
:1011E0000840002803D1A06DC9010843A06520462E
:1011F000FFF729FE02202168086004202840042807
:1012000002D13040042806D00820284008283AD1CE
:101210003040082837D1A06D10210840002803D1A4
:10122000A06D49010843A065206802F08AFA0028F1
:1012300023D0A07E002820D1206800680821084023
:1012400008281AD1206802F076FA00280DD120680B
:1012500040680C21884321684860A06DFF2101315E
:10126000884301210843A06507E0A06D20210843C1
:10127000A065E06D01210843E0652046FFF798FF77
:101280000C20216808608020284080280DD1304043
:1012900080280AD1A06D012109040843A0652046D9
:1012A00000F0AEF9802021680860FF20013028405E
:1012B000FF21013188420DD1304088420AD1A06D12
:1012C00049020843A0652046FFF7BEFDFF2001301C
:1012D000216808600120400228400121490288421B
:1012E0000DD1304088420AD1A06D49020843A06563
:1012F0002046FFF7AAFD0120400221680860102067
:10130000284010281ED1304010281BD1206B002807
:1013100001D1012706E02068C1688907890F0029EB
:1013200000D00127012F0AD1A06DB9020843A065A2
:10133000E06D02210843E0652046FFF740FF1020E2
:1013400021680860012040032840012149038842A8
:1013500009D13040884206D12046FFF773FD0120B5
:10136000400321680860F8BDFEB5044600200290E5
:10137000002500260190002C01D10120FEBD3C205B
:10138000005D012800D100BF2069002805D001219F
:1013900049052069884200D100BFA06D002807D10F
:1013A000204600F02FF90020E0650021542001556F
:1013B000206802F0B9F9002817D120688168894AAD
:1013C0001140012212071143816000BF86498748FE
:1013D0000068FEF78FFE401C4000019002E001987B
:1013E000401E019001980028F9D1206802F09CF974
:1013F000002809D1A06D10210843A065E06D0121EE
:101400000843E06501200290206802F094F9074645
:10141000A06D1021084000287ED1002FFCD1A06DC6
:101420000901884302210843A065206802F06CF995
:10143000002872D1217E8903A0680843617EC90318
:101440000843A17E49030843216B002902D00121F2
:10145000090300E000210843E16808432169C90F3E
:10146000C907002903D021694900490801E0012189
:10147000490508432C21095D490008430543202004
:10148000005D01280ED1A07E002803D101200004B8
:10149000054307E0A06D20210843A065E06D012110
:1014A0000843E065606A002806D0FF21C131606A08
:1014B0000840A16A084305432068C0684C490840B9
:1014C00028432168C8606068800F8007E16C08438A
:1014D00006433C20005D01280BD16068800F800727
:1014E00001210843216C0843616C0843A16C084347
:1014F0000643206800693F4908403043216808617D
:10150000032189076068884216D049426068884292
:1015100012D04900606801E05BE00DE088420BD02A
:10152000354880680F21890488430F22920461683E
:1015300011400843304988600021626B206802F046
:101540001AF92E49A26B206802F015F920690028CB
:1015500007D12068806A0F21C94308432168886247
:1015600011E001214905206988420CD1207F401EED
:101570004007C10E0F20C0438840216E08432168F8
:10158000896A216888622168002000910099496970
:101590000422024007239340194004220240D14014
:1015A000606B814208D10020E065A06D0221884374
:1015B00001210843A06512E0A06D0221884310219B
:1015C0000843A065E06D01210843E0650120029019
:1015D00005E0A06D10210843A0650120029002984B
:1015E000CCE60000E8FFFF7F400D03001000002064
:1015F0000102DEFF02FCFF1F0027014004FFFF077E
:101600007047000010B58CB00446142107A8FEF7FF
:10161000D2FD182101A8FEF7CEFD3249206888428C
:101620005DD10120800301900020059001A800F009
:1016300005FD002801D0FFF72BFB00BF2A480068FA
:10164000012109050843284908600846006801216E
:1016500009050840009000BF00BF00BF2248403885
:10166000406B012108432049403948630846406BDC
:10167000C007C00F009000BF00BF402007900320AC
:1016800008900020099007A90520000700F004FA3F
:1016900016481749086005204860002114488160F9
:1016A000C16080210161490041618900816120217F
:1016B000C16103210903016200F012F9002801D081
:1016C000FFF7E6FA00BF0A482065846200BF0022E7
:1016D00011460C2000F07CFC0C2000F067FC0CB0E4
:1016E00010BD0000002401404010024008000240EC
:1016F0008C000020F8B504460E461746206802F01C
:101700001AF8002850D100BF5420005D012801D1F3
:101710000220F8BD01215420015500BF2068C06897
:10172000084000280DD1206801F0EEFF002802D00B
:10173000206801F0CDFF2068C068012108432168BE
:10174000C8602046FFF7D0F90546002D2DD1A06DC9
:1017500017490840FF2101310843A0650020E065DA
:101760001448216DC8621448216D08631348216D27
:1017700048631C202168086000BF002154200155E7
:1017800000BF206840681021084321684860226833
:10179000114640313B463246206D00F001F90546C6
:1017A000206801F0D9FF00E002252846B1E70000DB
:1017B000FEF1FFFFA10900084F0A0008310A0008E6
:1017C00070B5044645480568206806681C20216CF1
:1017D0000140042088402840002820D004203040C8
:1017E00000281CD02068006820210840002805D16E
:1017F00020680068042188432168086037484068F1
:101800001C22216C114004228A4010433349486055
:10181000206B002860D02046216B88475CE01C20AC
:10182000216C0140022088402840002828D0022056
:101830003040002824D0206800682021084000287B
:1018400008D1206800680A218843216808600121C6
:1018500025200155214841681C22206C104002229D
:10186000824011431D48416000BF002124200155E2
:1018700000BFE06A00282FD02046E16A88472BE0AD
:101880001C20216C0140082088402840002823D0DB
:101890000820304000281FD0206800680E218843AF
:1018A000216808600D4841681C22206C104001220C
:1018B00082401143094841600120E0630121252055
:1018C000015500BF00212420015500BF606B002896
:1018D00002D02046616B884770BD000000000240C6
:1018E00010B50446002C01D1012010BD2A4A216800
:1018F000881A1421FEF7FEFB8000206402212520B7
:101900000155206800682549084021680860E168A1
:10191000A06808432169084361690843A169084335
:10192000E1690843216A084321680968084321687E
:1019300008602046FFF758F901218903A068884212
:1019400001D10020606020798006800E616C086003
:10195000A16CE06C4860606800280CD060680428C6
:1019600009D82046FFF75AF90020216D0860616D03
:10197000A06D486003E0002020656065A065002040
:10198000E06301212520015500BF002124200155DD
:1019900000BF0020A9E70000080002400F80FFFF01
:1019A000F8B504460D4616461F460020009000BFBD
:1019B0002420005D012801D10220F8BD012124204E
:1019C000015500BF2520005D012844D102212520BA
:1019D00001550020E063206800684008400021684D
:1019E00008603B46324629462046FFF72BF9206B1C
:1019F000002806D0206800680E210843216808608E
:101A00000BE0206800680421884321680860206892
:101A100000680A21084321680860606C00680121A1
:101A200009040840002805D0606C006809120843CA
:101A3000616C0860206D002806D0206D0068FF21D1
:101A400001310843216D08602068006801210843C6
:101A50002168086008E08020E06300BF00212420A6
:101A6000015500BF012000900098A6E770B504461C
:101A700000F0FEF806462546681C002802D00548FE
:101A800000782D1800BF00F0F3F8801BA842FAD3AD
:101A900070BD00000C00002070B503460A4600210E
:101AA000D7E001268E4014683440002C73D015799D
:101AB000AD07AD0F012D04D01579AD07AD0F022D87
:101AC00018D198684E000325B5400646AE4330460F
:101AD0004E00D568B54028439860586801258D4070
:101AE0000646AE4330461026556835402D098D40D8
:101AF000284358601579AD07AD0F032D0BD0D8687A
:101B00004E000325B5400646AE4330464E0095686C
:101B1000B5402843D8601579AD07AD0F022D15D11A
:101B2000CD08AE001D462035A8594D07EE0E0F25F5
:101B3000B5400646AE4330464E07F60E1569B54031
:101B40002843CD08AD001E462036705118684E005F
:101B50000325B5400646AE4330461579AD07AD0FB7
:101B60004E00B540284318600326360455683540BA
:101B7000002D6DD03A4D8E08B600A8598D07EE0E97
:101B80000F25B5400646AE43304605252D07AB422E
:101B900002D1002510E05BE0324DAB4201D10125BE
:101BA0000AE0314DAB4201D1022505E02F4DAB4299
:101BB00001D1032500E005258E07F60EB540284328
:101BC000274D8E08B600A851254D603D2868054672
:101BD000A54328460126360555683540002D02D01C
:101BE0000546254328461E4D603D28606868054629
:101BF000A54328460126760555683540002D02D0BC
:101C0000054625432846164D603D6860144D203535
:101C100068680546A5432846012676045568354080
:101C2000002D02D00546254328460D4D203568601D
:101C300028680546A54328460126360455683540E0
:101C4000002D02D0054625432846054D2035286045
:101C5000491C1568CD40002D00D022E770BD000062
:101C6000601802400004005000080050000C0050B2
:101C7000014800687047000004000020024641202F
:101C8000805C20282FD100BF4020805C012801D13A
:101C90000220704701234020835400BF24234120A9
:101CA000835410680068400840001368186010688A
:101CB000006801231B0398431368186010680068CC
:101CC00008431368186010680068012318431368FC
:101CD000186020234120835400BF002340208354F8
:101CE00000BF0020D5E70220D3E710B502460B461F
:101CF0004120805C20282ED100BF4020805C01283C
:101D000001D1022010BD01244020845400BF2424AE
:101D10004120845410680068400840001468206026
:101D2000106801680F2424020846A04301461802E7
:101D300001431068016010680068012420431468A2
:101D4000206020244120845400BF0024402084547B
:101D500000BF0020D6E70220D4E7000010B50446FB
:101D6000002C01D1012010BD4120005D002805D1CB
:101D7000002140200155204600F066F82421412032
:101D800001552068006840084000216808600F2164
:101D9000090660688843216808612068806801211D
:101DA000C903884321688860E068012806D10121C1
:101DB000C903A06808432168886005E021218902E1
:101DC000A068084321688860E068022807D120687D
:101DD00040680121C90208432168486006E0206884
:101DE00040680121C9028843216848602068406832
:101DF00014490843216848602068C0680121C9036C
:101E000088432168C860616920690843A1690902A3
:101E100008432168C860216AE069084321680860B6
:101E20002068006801210843216808600020606480
:101E3000202141200155002020630021422001552E
:101E4000002090E70080000210B586B004461421FF
:101E500001A8FEF7B0F91949206888422CD100BFCB
:101E60001748406B01210843154948630846406BF9
:101E7000C007C00F009000BF00BF0320C002019048
:101E8000122002900020039004900620059001A9E2
:101E900005200007FFF700FE00BF0948C06B0121C5
:101EA000890508430649C8630846C06B01218905B6
:101EB0000840009000BF00BF06B010BD00580040B1
:101EC000001002400348006803490978401801499E
:101ED00008607047040000200C00002010B50024AA
:101EE00008480068FF2101310843064908600320C3
:101EF00000F00AF8002801D0012401E000F034F8D5
:101F0000204610BD00200240F8B5044600251348C5
:101F1000007800281ED0114801787D20C000FEF70F
:101F2000E9F8074639460E480068FEF7E3F806462A
:101F300000F0C4FD00280BD1042C07D2002221465A
:101F4000401E00F045F80748046004E0012502E067
:101F5000012500E001252846F8BD00000C00002006
:101F6000100000200800002008B500BF0E480068DF
:101F7000012108430C49086008460068C007C00FEB
:101F8000009000BF00BF00BF07484038C06B890504
:101F9000084305494039C8630846C06B0904084036
:101FA000009000BF00BF08BD40100240014600295C
:101FB00009DB00BF00BFCB06DB0E01229A40034BBA
:101FC0001A6000BF00BF00BF7047000000E100E0E2
:101FD00070B504460D4616462946204602F020FA02
:101FE00070BD000070B50446114800680321490225
:101FF000884320430E4908604815844216D10D4994
:1020000009680622514308460B49FEF773F8451C40
:1020100005E0002D01D06D1E01E0032070BD0448D5
:1020200040690121890208408842F2D00020F5E78A
:10203000007000401000002040420F00FEB5044632
:1020400000270020029001214904206808408842AE
:102050007BD1002001907048C06BC9020840002865
:102060000ED100BF6C48C06B08436B49C86308467B
:10207000C06B09040840009000BF00BF0120019020
:1020800066480068FF210131084364490860FFF792
:10209000EFFD064606E0FFF7EBFD801B022801D9A5
:1020A000032706E05D480068FF2101310840002851
:1020B000F1D000BF002F4BD157484030C5690321F4
:1020C00009020D40002D1AD06069A84217D052486D
:1020D0004030C069884305464F484030C0690121FF
:1020E000090408434C494031C8610846C0690121D0
:1020F0000904884348494031C8610846C561E8077A
:10210000C00F002813D0FFF7B3FD064607E0FFF726
:10211000AFFD801B4249884201D9032706E03E48B3
:102120004030C069022108400028F0D000BF002FD5
:102130000CD139484030C0690321090288436169E4
:10214000084335494031C86103E00DE0029700E0E3
:1021500002970198012806D12F48C06B0121090779
:1021600088432D49C86300BF2078C007C00F0028EE
:1021700009D02948403040698008800061680843E0
:1021800025494031486120212068084020280AD193
:10219000214840304069032109038843A16808436E
:1021A0001D49403148610121890320680840884267
:1021B00013D11948403040698000800821690843E4
:1021C00015494031486109062069884205D1124805
:1021D000C068891308431049C8600121C9022068FA
:1021E0000840884215D10C484030406903218903DA
:1021F0008843E16808430849403148610121890367
:10220000E068884205D10448C06889000843024953
:10221000C8600298FEBD000000100240007000403F
:102220008813000070B504460D46002C01D1012032
:1022300070BD6B4800684007400FA84218D268483C
:102240000068C008C000284365490860FFF710FD1A
:10225000064607E0FFF70CFD801B6249884201D962
:102260000320E5E75E4800684007400FA842F1D12F
:10227000022120680840022815D104212068084066
:10228000042807D15848806807210903884340186B
:1022900055498860544880680F2109028843A16825
:1022A0000843514988602078C007C00F002854D0E7
:1022B0006068012808D14C480068012149040840A1
:1022C00000282ED10120B3E76068022808D14648D3
:1022D0000068012149060840002822D10120A7E713
:1022E0006068002808D14048006801218902084040
:1022F000002816D101209BE76068032808D13A48DE
:102300004030006A0221084000280AD101208FE7EE
:1023100035484030C06902210840002801D1012021
:1023200086E731488068C008C000616808432E49CC
:102330008860FFF79DFC064607E0FFF799FC801BCD
:102340002849884201D9032072E72748806838214C
:1023500008406168C9008842EFD121480068400701
:10236000400FA84218D91E480068C008C000284382
:102370001B490860FFF77CFC064607E0FFF778FC86
:10238000801B1849884201D9032051E7144800688E
:102390004007400FA842F1D10421206808400428DA
:1023A00008D111488068072109038843E168084380
:1023B0000D49886000F03AF80B4989680F22120233
:1023C0001140090A8900094A515CC906C90EC84072
:1023D0000749086007480068FFF796FD28E70000F6
:1023E000002002408813000000100240BC4E00088C
:1023F000100000200800002001480068704700001D
:102400001000002000B5FFF7F7FF06498968072292
:1024100012031140090B8900034A515CC906C90E19
:10242000C84000BD00100240FC4E0008FEB5354813
:1024300080683821084000280DD132480068090220
:102440000840C10A0120884000902F480099FDF7FC
:1024500051FE044654E02B48806838210840082883
:1024600001D12A4C4CE027488068382108401028C8
:1024700034D12448C0688607B60F2248C06870214E
:1024800008400009401C0190022E0FD0032E0CD1F1
:102490001E480199FDF72EFE1A49C9687F221202D3
:1024A0001140090A484305460DE000BF164801994E
:1024B000FDF720FE1349C9687F2212021140090A64
:1024C0004843054600BF00BF0E48C068400F471C88
:1024D00039462846FDF70EFE044611E0094880689B
:1024E00038210840202801D1840209E0054880688D
:1024F00038210840182802D17D24240200E000245D
:102500002046FEBD001002400024F40000127A00B4
:10251000FEB50446002C01D10120FEBD2078C00785
:10252000C00F00286FD0F748876838210F40C06877
:102530008607B60F102F01D1032E01D0082F0BD123
:10254000F048006801214904084000285BD0606819
:10255000002858D10120E0E700BF0121090460688C
:10256000884205D1E74800680843E649086021E051
:1025700005210904606888420ED1E2480068012103
:1025800089040843DF4908600846006801210904FE
:102590000843DC4908600DE0DA48006801210904BD
:1025A0008843D849086008460068012189048843A7
:1025B000D449086000BF6068002812D0FFF758FBBC
:1025C000054606E0FFF754FB401B642801D90320B1
:1025D000A3E7CC4800680121490408400028F1D055
:1025E00011E0FFF745FB054606E0FFF741FB401B06
:1025F000642801D9032090E7C248006801214904FA
:1026000008400028F1D1022120680840022873D137
:10261000BC488068382108400746BA48C068860729
:10262000B60F102F01D1022E01D0002F36D1B548A0
:102630000068012189020840002804D0E0680028D1
:1026400001D1012069E7AF4840687F210902884332
:10265000616909020843AB494860002F16D108465A
:1026600000680721C902884321690843A549086019
:10267000084600680722D2021040C20A012090409A
:102680000146A148FDF736FDA0490860A048006852
:10269000FFF73AFC002849D001203EE7E068002817
:1026A0002BD0984800680721C90288432169084354
:1026B00094490860084600688915084391490860F4
:1026C000FFF7D6FA054606E0FFF7D2FA401B0228CC
:1026D00001D9032021E78B480068012189020840C5
:1026E0000028F1D0874840687F210902884361694A
:1026F000090208438349486018E082480068FF21C6
:10270000013188437F490860FFF7B2FA054606E0C9
:10271000FFF7AEFA401B022801D90320FDE67948F5
:1027200000680121890208400028F1D108212068B1
:102730000840082849D17348806838210840182883
:102740000BD170484030006A0221084000283CD07C
:10275000A069002839D10120DFE6A06900281AD03D
:1027600068484030006A01210843664940310862E8
:10277000FFF77EFA054606E0FFF77AFA401B0228CB
:1027800001D90320C9E65F484030006A02210840B1
:102790000028F1D019E05B484030006A4008400052
:1027A000584940310862FFF763FA054606E0FFF733
:1027B0005FFA401B022801D90320AEE651484030A1
:1027C000006A022108400028F1D104212068084055
:1027D00004287CD1002001904A48806838210840B4
:1027E00020280BD147484030C0690221084000280A
:1027F0006ED0A06800286BD101208EE64148C06BE6
:10280000010F01208843002810D000BF3D48C06B55
:102810000121090708433B49C8630846C06B090406
:102820000840009000BF00BF0120019039480068B7
:10283000FF2101310840002816D1364800680843BE
:1028400034490860FFF714FA054606E0FFF710FA6E
:10285000401B022801D903205FE62E480068FF21B3
:10286000013108400028F1D000BFA068012808D13C
:1028700024484030C0690121084322494031C861E1
:1028800020E0A06805280FD11E484030C06904210F
:1028900008431C494031C8610846C069012108430A
:1028A00018494031C8610DE016484030C069410800
:1028B000490014484030C161C0690421884311496E
:1028C0004031C86100BFA068002816D001E040E098
:1028D0003EE0FFF7CDF9054607E0FFF7C9F9401BD9
:1028E0000D49884201D9032017E606484030C069E7
:1028F000022108400028F0D01EE0FFF7B9F9054694
:1029000014E00000001002400024F4001000002039
:10291000080000200070004088130000FFF7A8F9AD
:10292000401B6249884201D90320F6E56048C0692E
:10293000022108400028F1D10198012808D15C4803
:102940004038C06B01210907884359494039C863A1
:1029500000BFE06900285AD05548403880683821C7
:10296000084010287AD0E069022851D150484038F8
:1029700000680121090688434D4940390860FFF786
:1029800077F9054606E0FFF773F9401B022801D9E5
:102990000320C2E546484038006801214906084046
:1029A0000028F0D1616A206A0843A16A090208433D
:1029B000E16A0843216B08433D494039C9683D4AF3
:1029C000114008433A494039C8600846006801216F
:1029D000090608433649403908600846C0680904BA
:1029E000084333494039C860FFF742F9054606E01D
:1029F000FFF73EF9401B022801D903208DE52C4842
:102A0000403800680121490608400028F0D04AE01B
:102A10002748403800680121090688432449403985
:102A20000860FFF725F9054606E0FFF721F9401B8E
:102A3000022801D9032070E51D48403800680121B3
:102A4000490608400028F0D119484038C0681A49A2
:102A5000084017494039C86025E0FFE7E0690128D0
:102A600000D15AE512484038C668B107890F206A7C
:102A7000814216D170203040616A884211D17F2096
:102A800000023040A16A090288420AD11F20400496
:102A90003040E16A884204D1710F4907206B8142BE
:102AA00001D0012039E5002037E50000881300003F
:102AB000401002408C80C11FFCFFFEEF70B5044641
:102AC0002546681E0949884201D901200CE0681E8C
:102AD000074948610321081F01F0A2FC00200449B6
:102AE000886107200861002070BD0000FFFFFF0023
:102AF00000E000E0704770477047000030B50246C4
:102B00000B4600BF3C20805C012801D1022030BD73
:102B100001253C20855400BF02253D2085541068C6
:102B2000416810688468164D1068A84206D10F25C8
:102B30002D050846A84301465868014370250846FC
:102B4000A843014618680143106841600C4D1068A5
:102B5000A84203D00B4D1068A84207D1802520461B
:102B6000A8430446986804431068846001253D200A
:102B7000855400BF00253C20855400BF0020C6E7D7
:102B8000002C01400004004010B50446002C01D187
:102B9000012010BD3D20005D002805D100213C2012
:102BA0000155204600F026F802213D200155211D47
:102BB000206801F0B5F801214820015500BF3E20F2
:102BC00001553F200155402001554120015542202B
:102BD00001554320015500BF00BF44200155452049
:102BE0000155462001554720015500BF3D200155A4
:102BF0000020CEE738B504461F49206888421ED120
:102C000000BF1E480068C91408431C4908600846F4
:102C10000068C9140840009000BF00BF00221146A0
:102C20000D20FFF7D5F90D20FFF7C0F9002211465E
:102C30000E20FFF7CDF90E20FFF7B8F91BE0104981
:102C40002068884217D100BF0C484038C06B022171
:102C500008430A494039C8630846C06B022108404E
:102C6000009000BF00BF002211461020FFF7B0F90E
:102C70001020FFF79BF938BD002C014040100240A6
:102C80000004004001463D20405C012801D00120A5
:102C9000704702233D2043540868C068012318434D
:102CA0000B68D8600F4B0868984203D00E4B086839
:102CB00098420FD1086882680C4B1A40062A0FD040
:102CC000D81F82420CD008680068012318430B68A3
:102CD000186005E008680068012318430B68186055
:102CE0000020D5E7002C014000040040070001004F
:102CF000F8B504460D460020009000BF3C20005D62
:102D0000012801D10220F8BD01213C20015500BF5E
:102D100002213D200155206886683A480640FF217F
:102D20000902304688430646206886602868502895
:102D300034D00CDC202851D004DC00284CD01028E2
:102D400052D14AE030284AD040284DD13AE060289C
:102D50002ED0702807D001210903401A02D0401A52
:102D600042D10DE043E0EB686A68A968206801F091
:102D700027F820688668772006432068866036E05A
:102D8000EB686A68A968206801F01AF82068806812
:102D90000121890308432168886028E0EA6869689E
:102DA000206801F027F85021206801F017F81EE094
:102DB000EA686968206801F036F86021206801F04F
:102DC0000DF814E0EA686968206801F013F8402102
:102DD000206801F003F80AE000BF00BF00BF2968C7
:102DE000206800F0FBFF02E00120009000BF00BF60
:102DF00001213D20015500BF00213C20015500BFAD
:102E0000009880E788FFCEFF7047000070B5044649
:102E10002068C6682068056902202840022819D168
:102E20003040022816D1401F216808610120207718
:102E3000206880698007800F002803D02046FFF7B4
:102E4000E3FF05E0204600F0B3F8204600F0B1F8BB
:102E5000002020770420284004281AD1304004287C
:102E600017D1C0432168086102202077206880695B
:102E7000032109020840002803D02046FFF7C4FFC1
:102E800005E0204600F094F8204600F092F800207B
:102E9000207708202840082819D13040082816D16A
:102EA000C04321680861042020772068C06980073A
:102EB000800F002803D02046FFF7A6FF05E020463C
:102EC00000F076F8204600F074F8002020771020FB
:102ED000284010281AD13040102817D1C04321684B
:102EE0000861082020772068C06903210902084092
:102EF000002803D02046FFF787FF05E0204600F0BA
:102F000057F8204600F055F800202077E807C00F5A
:102F100000280AD0F007C00F002806D00120C043C7
:102F200021680861204600F045F88020284080286C
:102F300006D001204003284001214903884209D1DD
:102F400080203040802805D118482168086120463B
:102F5000FFF7D1FDFF2001302840FF2101318842D9
:102F600009D180203040802805D1C84321680861FC
:102F70002046FFF7BFFD40202840402808D13040C0
:102F8000402805D1C04321680861204600F013F8AD
:102F900020202840202808D13040202805D1C043D7
:102FA000216808612046FFF7A7FD70BD7FDFFFFFA6
:102FB0007047704770477047014600BF8420405CEF
:102FC000012801D10220704701238420435400BF0F
:102FD0002423882043500868026808680068400875
:102FE00040000B68186001235B07104698430246B7
:102FF000002048660868026020238820435000BFF4
:1030000000238420435400BF0020DCE770B5044651
:103010000D4600BF8420005D012801D1022070BD53
:1030200001218420015500BF2421882001512068FE
:103030000668206800684008400021680860206831
:103040008068072149068843284321688860204614
:1030500000F002FF2068066020218820015100BF97
:1030600000218420015500BF0020D8E770B5044638
:103070000D4600BF8420005D012801D1022070BDF3
:1030800001218420015500BF24218820015120689E
:1030900006682068006840084000216808602068D1
:1030A0008068C000C008284321688860204600F07E
:1030B000D3FE2068066020218820015100BF002136
:1030C0008420015500BF0020D9E710B50446002C2C
:1030D00001D1012010BDA069002800D000E000BF90
:1030E00088200059002805D1002184200155204660
:1030F00000F02CF824218820015120680068400845
:10310000400021680860A06A002802D0204600F034
:10311000D7FE204601F010F8012800D1DAE7206838
:1031200040680921C9028843216848602068806896
:103130002A218843216888602068006801210843AB
:1031400021680860204600F033FFC3E710B58CB05B
:103150000446142107A8FDF72EF8182101A8FDF751
:103160002AF855492068884252D101200190002058
:10317000029001A8FEF762FF002801D0FDF788FD4C
:1031800000BF4E4800680121890308434B4908608D
:1031900008460068012189030840009000BF00BF75
:1031A00000BF46484038406B02210843434940393C
:1031B00048630846406B02210840009000BF00BFF2
:1031C000C020079002200890002009900A900B90E0
:1031D00007A93B48FEF760FC3A483B4908603320AA
:1031E00048601021384881600021C1608021016160
:1031F000002141618161C1610162FEF771FB00281C
:1032000001D0FDF745FD00BF2F48E067846250E024
:103210002E49206888424CD100BF28484038C06BF6
:1032200001214904084325494039C8630846C06B59
:10323000012149040840009000BF00BF00BF1F48A3
:103240004038406B012108431C4940394863084617
:10325000406BC007C00F009000BF00BF0C2007905C
:1032600002200890002009900A9001200B9007A9E5
:1032700005200007FEF710FC1248143014490860BE
:10328000352048601021124881600021C1608021F2
:103290000161002141618161C1610162FEF720FB92
:1032A000002801D0FDF7F4FC00BF0948E067846204
:1032B00000BF0CB010BD00000038014040100240BB
:1032C000000400501C000240FC02002000440040AA
:1032D00058030020FFB583B004460D4617468820EA
:1032E000005920286DD1002D01D0002F02D10120DE
:1032F00007B0F0BD01210903A068884208D1206908
:10330000002805D1E807C00F002801D00120EFE711
:10331000002190200151212188200151FEF7A8FCB5
:103320000190542007535620075301210903A06838
:10333000884205D12069002802D10026029502E0CA
:103340002E460020029024E0069800900022802162
:103350002046019B00F0E2FF002804D020218820B5
:1033600001510320C4E7002E09D102980088C0054E
:10337000C00D216888620298801C029003E03078BA
:1033800021688862761C5620005B401E81B2562060
:1033900001535620005B0028D6D1069800900022E9
:1033A00040212046019B00F0B9FF002804D02021D5
:1033B0008820015103209BE7202188200151002013
:1033C00096E7022094E700BFFEE70000F0B585B065
:1033D00000265FA000F0FCFF64A000F0F9FF6A483F
:1033E000FDF75AFC0643002E05D068A000F0F0FF60
:1033F000304605B0F0BD6CA000F0EAFF7048FFF762
:1034000041FC0643002E04D06EA000F0E1FF3046E0
:10341000EFE775A000F0DCFF022279495A48FEF779
:1034200069F90643002E04D076A000F0D1FF3046A3
:10343000DFE77EA000F0CCFF7D20C000FEF716FB8A
:1034400082A000F0C5FF00BF8B4800780028FBD0A9
:103450006B494888FDF742F8884904904889FDF790
:103460003DF887490290FCF70AFF03900499FCF7A6
:1034700043FF0746FDF74DF804460B467F48418958
:10348000224680A000F0A4FF002434E000BF7A4868
:1034900000780028FBD05A480088884909884018DD
:1034A0008649088056494888FDF718F87349029004
:1034B0004889FDF713F872490090FCF7E0FE01908F
:1034C0000299FCF719FF07464D490888FDF706F8F1
:1034D00039460390FCF7D3FE05468B21C905FCF75E
:1034E0000BFF0490764801680498FCF76FFE74495E
:1034F0000860601CC4B2642CC8DB64216F4800887B
:10350000FCF70EFE6D4908806E496D480068FCF7B7
:10351000F3FE6B49086069480088FCF7DFFF054649
:10352000FF218905FCF7ABFE0446FCF7DEFF664988
:10353000088063480068FCF7ECFF04465F48008899
:1035400022460B460090614800F042FF002050E701
:103550005B494E464F5DE5889DE5A78BE58C96530C
:103560004D55E9858DE7BDAE210D0A005B494E46FC
:103570004F5D20414443E6A0A1E58786E5BC80E598
:10358000A78B210D0A000000280000205B45525245
:103590004F525D20414443E6A0A1E58786E5A4B1F2
:1035A000E8B4A5210D0A00005B4F4B5D2041444368
:1035B000E6A0A1E58786E5AE8CE68890210D0A009D
:1035C000880100205B4552524F525D20E5AE9AE6DD
:1035D00097B6E599A8E590AFE58AA8E5A4B1E8B467
:1035E000A5210D0A000000005B4F4B5D20E5AE9A5F
:1035F000E697B6E599A8E590AFE58AA8210D0A00FF
:10360000140000205B4552524F525D20414443E874
:10361000BF9EE7BBADE8BDACE68DA2E5BC80E5A7EB
:103620008BE5A4B1E8B4A5210D0A00005B4F4B5D0A
:1036300020414443E8BF9EE7BBADE8BDACE68DA2A8
:10364000E5BC80E5A78B210D0A0000005B494E46D2
:103650004F5D20E5BC80E5A78BE8AFBBE58F96E624
:103660009A97E58589E4B88BE79A84E794B5E58E67
:103670008B210D0A0000000000000020A075FF1F34
:10368000000040405B494E464F5D2041444320E5E9
:103690008F82E88083E794B5E58E8BE6A0A1E5876D
:1036A00086E580BCE4B8BA307825582C20564444CE
:1036B000413A25303466200D0A0000001800002031
:1036C0001C0000200000C8421A0000201C4F000807
:1036D0008168024A1140891C81607047E8FFFF7FC2
:1036E0008168024A1140491C81607047E8FFFF7FF2
:1036F0000146086807229205104070470146886815
:10370000022210404008704701468868C007C00F79
:10371000012250405040704701468868C007C00FE2
:10372000012250405040704701468868012212072C
:103730001040000F7047014688680422104080083E
:1037400070470146C868032292021040002801D148
:10375000012070470020FCE78168024A1140091DE2
:1037600081607047E8FFFF7F026807239B059A434B
:103770000A430260704730B5436904240D46254072
:103780000724AC40A34304240C401546A5402B431A
:10379000436130BD0EB50020009001900290264894
:1037A0002649086001200005486000212348816007
:1037B000C1600121490501610421416100210176B7
:1037C000417681760221C1610021001D017713211C
:1037D0008901001F41620121890281620121243097
:1037E00001720903243801630121416381630021CF
:1037F000243001762438C164FDF7B6FD002801D0DD
:10380000FDF746FA0E4800900020019002906946AC
:103810000A48FDF71BFB002801D0FDF739FA0948DB
:1038200000900420019069460448FDF70FFB002832
:1038300001D0FDF72DFA0EBD002401402800002024
:1038400040000018002000B408B500BF0E48806B8F
:10385000012108430C4988630846806BC007C00FEC
:10386000009000BF00BF002203210920FEF7B0FB3B
:103870000920FEF79BFB002202210A20FEF7A8FB8D
:103880000A20FEF793FB08BD0010024008B500BFF8
:103890000D48406B022108430B4948630846406BC2
:1038A00002210840009000BF00BF00BF0648406BE7
:1038B00001210843044948630846406BC007C00F14
:1038C000009000BF00BF08BD0010024010B51348B3
:1038D00013490860134848600021114881600121A4
:1038E000C1600021016141618161C1610162FEF736
:1038F00035FA002801D0FDF7CBF900210848FEF782
:10390000BDF9002801D0FDF7C3F900210448FEF7F6
:10391000ECF9002801D0FDF7BBF910BD00580040BC
:10392000E8000020BC7D701000B587B00020039037
:103930000490059006900090019002901848194953
:1039400008603F2048600021164881603121C16035
:1039500000210161416180218161FFF715F9002893
:1039600001D0FDF795F901200003039003A90D484C
:10397000FFF7BEF9002801D0FDF78AF9002000907A
:103980000120400501900020029069460548FFF79C
:10399000B5F8002801D0FDF77BF907B000BD0000A5
:1039A000002C01403C01002000B587B000200390AE
:1039B00004900590069000900190029015481649D9
:1039C00008603F2048600021134881603121C160B8
:1039D000002101618161FFF7D7F8002801D0FDF7D0
:1039E00057F901200003039003A90B48FFF780F962
:1039F000002801D0FDF74CF9202000900020029013
:103A000069460548FFF77AF8002801D0FDF740F92C
:103A100007B000BD000400408801002010B51A481E
:103A20001A490860E120400248600021174881607F
:103A3000C16001610C21416100218161C1610162AC
:103A400041620020114988620846FFF73EFB0028CA
:103A500001D0FDF71DF900210C48FFF707FB0028F6
:103A600001D0FDF715F900210848FFF7CFFA00282B
:103A700001D0FDF70DF90548FFF79EFA002801D0A7
:103A8000FDF706F910BD000000380140D401002008
:103A900010B50E480E490860E12040024860002140
:103AA0000B488160C16001610C214161002181618D
:103AB000C161016241620020054988620846FFF742
:103AC00004FB002801D0FDF7E3F810BD00440040DE
:103AD0006802002000BFFEE770470000F0B589B023
:103AE00005460C4600260021296069600020206000
:103AF0006060524908801DE000E000BF5048007837
:103B00000028FAD000204E4908704E4800884E49DF
:103B10000988884202DA002009B0F0BD49480088CF
:103B2000464909884900494A505244480088401C87
:103B300042490880414800880528DDDB002656E020
:103B400000E000BF3E4800780028FAD000203C4941
:103B500008703C4800883C490988884201DA701C9A
:103B6000C6B2052E03D13AA000F032FC40E0354940
:103B70004888FCF7B3FC3A4901904889FCF7AEFC51
:103B800038490090FCF77BFB07460199FCF7B4FB32
:103B90002C4903900888FCF7A1FC02900399FCF7DC
:103BA0006EFB8B21C9050490FCF7A6FB0590FCF782
:103BB000B0FC079106906168206805910490079B0E
:103BC000069AFCF7D7FB616020601C480088012141
:103BD0008902884206DA1B4800881849098849008A
:103BE0001A4A505215480088401C14490880A7E71B
:103BF00000BF124800880021696028606968286851
:103C00001422002305910490FCF79EFA0690079178
:103C100003910290696828680191009061682068AA
:103C200002460B46059104900F4800F0D1FB226834
:103C300010466168FCF796FC6EE70000200000204B
:103C400000000020140000201A000020B40300200F
:103C5000E5BFABE997A8E585B3E997AD0D0A00008C
:103C6000A075FF1F00004040684F0008704710B566
:103C7000FEF728F910BD00B591B0342104A8FCF777
:103C80009AFA0020009001900290039001204002D7
:103C9000FEF7A8F902200490C001079000200890C8
:103CA0004020099002200B9002210C9100210D91DF
:103CB00008210E9101040F910107109104A8FEF74D
:103CC00027FC002801D0FCF7E3FF0720009002202A
:103CD000019000200290039002216846FEF7A2FAAC
:103CE000002801D0FCF7D4FF11B000BD70470000E0
:103CF00010B50248FFF78AF810BD00003C01002013
:103D000010B50248FFF782F810BD00003C0100200A
:103D100010B50248FFF77AF810BD000088010020B6
:103D200010B50268214B984202D0214B984205D130
:103D300070241346A3431A464B681A431B4B984200
:103D40000BD01B4B984208D01A4B984205D01A4B07
:103D5000984202D0194B984206D1032424021346FC
:103D6000A3431A46CB681A4380241346A3434C69E5
:103D700023431A4602608B68C3620B6883620B4B55
:103D8000984205D00C4B984202D00C4B984201D17E
:103D90000B690363012343610369DB07DB0F002B1E
:103DA00003D003695B085B00036110BD002C014078
:103DB0000004004000200040004401400048014051
:103DC00070B50C468168FF2636020D46B54329467C
:103DD0001D02154325432943816070BD0A46816851
:103DE000034B1940072313431943816070470000B8
:103DF0008FFFCFFF70B50B461446026A056A6D0847
:103E00006D0005628169F0260D46B54329462501FE
:103E100029430A261546B5432A4615461D432A4618
:103E20008161026270BD70B50B461446026A056A74
:103E30001026B543056281690F2636030D46B5434A
:103E4000294625032943A0261546B5432A461D01C8
:103E50002A438161026270BDF8B50446606E002895
:103E600005D101216A2001536820015322E008276F
:103E70000822009220688068072149060840450E04
:103E800020688068460F0C4A915D0C4A935D009A49
:103E900053431846FCF744F981B26A200153064A9D
:103EA000515D064A525D7A431046FCF739F981B2FA
:103EB00068200153F8BD0000AB4E0008A34E000877
:103EC0000822816A1140082907D101684968120354
:103ED0009143826B114302685160018DC907C90F7C
:103EE000002908D001684968012252049143C26A3E
:103EF0001143026851600222816A1140022907D1F0
:103F000001684968D2039143026B11430268516012
:103F10000422816A1140042907D10168496812040A
:103F20009143426B1143026851601022816A114033
:103F3000102907D10168896812029143C26B1143AD
:103F4000026891602022816A1140202907D101680E
:103F5000896812029143026C114302689160402209
:103F6000816A1140402915D1016849689203914343
:103F7000426C11430268516001221205416C91426A
:103F800008D101684968032252059143826C1143AC
:103F9000026851608022816A1140802907D101683E
:103FA000496812039143C26C114302685160704723
:103FB000F8B50446002190200151FDF759FE054651
:103FC0002068006808210840082824D138482B467A
:103FD000002289040090204600F0A0F900281AD0A1
:103FE00000BF00F059FA0646012000F067FA206889
:103FF00000688021884321680860304600F05EFA3E
:1040000000BF20218820015100BF002184200155DC
:1040100000BF0320F8BD2068006804210840042880
:1040200036D123482B46002209050090204600F097
:1040300075F900282CD000BF00F02EFA06460120AA
:1040400000F03CFA20680068FF2121318843216894
:104050000860304600F032FA00BF00BF00F01CFAE2
:104060000646012000F02AFA2068806840084000D7
:1040700021688860304600F021FA00BF20218C20A2
:10408000015100BF00218420015500BF0320C1E77A
:104090002021882001518C2001510020E0662067FA
:1040A00000BF00218420015500BF0020B2E70000BE
:1040B000FFFFFF0170B5044600BF00F0EDF90546B3
:1040C000012000F0FBF920680068FF2121318843BE
:1040D00021680860284600F0F1F900BF00BF00F039
:1040E000DBF90546012000F0E9F9206880681149F4
:1040F000084021688860284600F0E0F900BFE06EC3
:10410000012810D100BF00F0C7F90546012000F0DA
:10411000D5F9206800681021884321680860284686
:1041200000F0CCF900BF20218C2001510020E06676
:10413000606770BDFEFFFFEFF0B585B0044600205C
:1041400001902169A068084361690843E169084357
:104150000390206800686949084003990843216872
:10416000086020684068032109038843E168084328
:1041700021684860A0690390206A0399084303906E
:10418000206880685E490840039908432168886078
:104190002068C06A00090001616A08432168C8629A
:1041A00000BF58492068884217D1574840698007A6
:1041B000800F002806D0012808D0022804D0032848
:1041C00008D105E0002707E0022705E0042703E007
:1041D000082701E0102700BF06E04C49206888420C
:1041E00001D1002700E0102700BF0121C903E069C9
:1041F000884241D1002F06D0022F08D0042F08D0CA
:10420000082F0DD109E0FEF7FDF805460CE0404D02
:104210000AE0FEF70BF9054606E00125ED0303E091
:1042200000250120019000BF00BF002D5BD0606A17
:104230004000384A115A2846FBF75CFF400061688D
:104240004908401800906168FBF754FF0646102E9D
:104250000FD3314886420CD82F480F383040029097
:104260003007400F02990843029002982168C86005
:1042700039E00120019036E0002F06D0022F08D04F
:10428000042F08D0082F0DD109E0FEF7BBF8054632
:104290000CE01F4D0AE0FEF7C9F8054606E00125CF
:1042A000ED0303E000250120019000BF00BF002DB9
:1042B00019D0606A4000174A115A2846FBF71AFFC6
:1042C00061684908401800906168FBF713FF0646D3
:1042D000102E06D31048864203D8B0B22168C860B9
:1042E00001E00120019001216A200153682001535F
:1042F00000206067A067019805B0F0BDF369FFCFAB
:10430000FFF4FF110038014040100240004400401B
:104310000024F400864E0008FFFF0000FFB581B0C6
:1043200004460D4617460A9E46E0701C002843D0FE
:10433000FDF79EFC0499401AB04201D8002E02D12C
:10434000032005B0F0BD2068006804210840002863
:1043500032D0802D30D0402D2ED02068C069082169
:104360000840C00800280FD00820216808622046B5
:10437000FFF7A0FE08219020015100BF00218420FA
:10438000015500BF0120DCE72068C0690121C90296
:104390000840C00A00280FD008462168086220465D
:1043A000FFF788FE20219020015100BF00218420CA
:1043B000015500BF0320C4E72068C0692840A84217
:1043C00001D1012000E00020B842AED00020B8E7C3
:1043D0000FB410B503A9044B044A029800F02CF95D
:1043E00010BC08BC04B01847754D0008240000201C
:1043F0002021020C01D010211046020A01D01046E3
:104400000839020901D01046091F820801D0104660
:10441000891E420801D0881E7047081A70470000A4
:1044200010B5002819DB1A4A03231B02D21883088F
:104430009B00D2588307DC0EFF23A3409A438B07CF
:104440001B0E8407E40EA3401A43114B03242402DD
:104450001B198408A4001A5118E00E4A03071B0F09
:10446000083B9B089B00D2588307DC0EFF23A34028
:104470009A438B071B0E8407E40EA3401A43054B97
:104480000407240F083CA408A4001A5110BD000022
:1044900000E100E01CED00E0EFF31080704702E067
:1044A00008C8121F08C1002AFAD1704770470020BF
:1044B00001E001C1121F002AFBD1704780F3108870
:1044C00070470000F0B51FB486B00998089A030D34
:1044D0000021024314D05148514A18185043051482
:1044E0001198012810981AD0281A401C00264D4F08
:1044F0004D49009601910490002812DA444211E0DF
:104500001198012449A3012801D11098C1430698AC
:10451000119A84600360C26041600BB0F0BD4042FC
:10452000E4E70446210500203F4A001C5141039165
:10453000029012E0E00707D032463B46019900980E
:10454000FCF700F90191009032463B4610461946AF
:10455000FCF7F8F806460F466410002CEAD10498E0
:10456000039B0028029A0999089806DAFCF7EAF8F2
:10457000019B009AFCF7E6F805E0FCF74BF9019B7C
:10458000009AFCF747F904460E460022284BFCF738
:10459000D9F903D80020C043014607E00022254B8B
:1045A00020463146FBF7E6FEFCF7ACF9102409E0A3
:1045B000002C0ADB0A220023FBF7C6FD079B3032E2
:1045C0001A55641E02460A43F2D11122641C079B4D
:1045D000121B1C19119B012B03D0012308430ED180
:1045E0000AE0084304D0112010900020119077E7D2
:1045F0001098151A6D1E0BE01098824202DD002300
:104600006D1C03E0824201DA00236D1E002BEED008
:10461000069811998260C16030C07EE701FCFFFFFF
:10462000104D0000000014400000F03F300000007A
:104630000000F0430000E03FFFB597B006460025BC
:104640001BE2252876D100242746F749049400E090
:104650000443761C32780120203A90400842F7D17A
:1046600030782A280ED002223078014630390929C4
:1046700016D804990A235943303940181443761C3C
:104680000490F1E7189802C804911890002904DA00
:104690000120400304434842049002200443761C56
:1046A00030782E2814D1042004437078761C2A28F0
:1046B00009D11898761C80C8189009E00A214F4348
:1046C000303FC719761C3078014630390929F5D9B1
:1046D00030786C2810D006DC4C281AD068280ED010
:1046E0006A2817D104E0742813D07A2812D110E078
:1046F0000120400504430CE00121090501E00321EC
:1047000009050C437178814203D10120000524186A
:10471000761C761C307866280BD013DC58287DD0A8
:1047200009DC00287BD04528F6D04628F4D047285D
:104730001AD1A9E118E0632835D0642870D0652823
:1047400012D1A1E170286CD008DC6728F1D069286B
:104750007DD06E280DD06F2806D1BCE073282ED0F6
:10476000752873D0782859D01A9A199990476D1CDA
:1047700082E16002400F022809D003280DD00428EE
:10478000189801680DD00D60001D189074E11898FC
:10479000EA1701680D604A60F6E7189801680D8015
:1047A000F2E70D70F0E718986A4601781172001D63
:1047B00018900020507202A80090012005E018987F
:1047C00002C8189000200091C04361070ED5002157
:1047D00001E00199491C0191B94213DA8142F8DBE9
:1047E000019A0099895C0029F3D10BE0002101E0D6
:1047F0000199491C01918142FADB019A0099895C77
:104800000029F5D1019904981A9B471A2146384688
:10481000199A00F099FA4019019903E051E030E14A
:1048200015E050E0451807E0009800990078491C11
:1048300000911A9A199990470198401E0190401CC6
:10484000F2D1214638461A9B199A12E137E00A2024
:104850000021009001916002410F022907D0189AAF
:1048600001CA1892C2179446032908D00AE0189882
:10487000C01DC108C90005C91891944607E000B2DF
:10488000C2179446042902D140B2C1178C460022B7
:104890006146944506DA0A460021404291418C4621
:1048A0002D2102E0210504D52B216A461173012137
:1048B00003E0E10701D02021F7E7029156E00A204A
:1048C0000AE0102008E0102000900021042004439A
:1048D0000191082703E00820002101910090600267
:1048E000410F022907D0189A01CA18920022944653
:1048F000032908D008E01898C01DC108C90005C9DF
:104900001891944603E080B2042900D1C0B200217E
:10491000029121072AD531780D91702906D0009A8D
:104920001021019B4A401A4305D00EE040216A46FF
:104930001173012108E06146014306D030216A4627
:1049400011730D99517302210291009A0821019B64
:104950004A401A430AD16146014301D1610705D596
:1049600030216A46117301217F1E02913178582946
:1049700004D02EA10E910DA90D910DE030A1F9E703
:104980006146019B009AFBF7DFFB0E9B8C469B5C0C
:104990000D9A521E0D92137061460143F0D10D988D
:1049A00005A9081A20300190600703D501200004F2
:1049B000844300E001270198874201DD381A00E0B6
:1049C0000020019900904118029809180498401A93
:1049D0000490E00306D421461A9B199A049800F02B
:1049E000B3F94519002706E003A81A9AC05D199982
:1049F00090476D1C7F1C02988742F5DBE0030CD5C5
:104A000021461A9B199A049800F09EF9451904E072
:104A10001A9A3020199990476D1C0099481E0090F1
:104A20000029F5DC1FE00000092801003031323395
:104A300034353637383961626364656600000000DA
:104A400030313233343536373839414243444546C4
:104A5000000000000D980D990078491C0D911A9ADC
:104A6000199990476D1C0199481E01900029F1DCAD
:104A70004DE100F059F94519761C3078002800D036
:104A8000DFE528461BB0F0BD600700D40627189864
:104A9000C01DC108C90048680A680831C30FDB0798
:104AA0001891190001D09CA108E0210501D59BA116
:104AB00004E0E10701D09AA100E09AA1430010911F
:104AC00030785B0865280CD006DC452809D04628DC
:104AD0001DD0472841D141E0662818D067283CD135
:104AE0003CE00021112F01DB112000E0781C019136
:104AF000009008A911A8FFF7E5FC13990591002182
:104B0000119A15927F1C12980197009150E0012094
:104B1000C00703900120019008A9009711A8FFF792
:104B2000D1FC139A149905920022119B00921298BD
:104B30001593059A0192002901D0104602E0791CD4
:104B400040180190381A01D5019804E04042401EF7
:104B50000090781C0190C01B029043E0012F00DA06
:104B600001270021112F01DD112000E038460191BD
:104B7000009008A911A8FFF7A5FC13990591119AB7
:104B80000021129815920091019721070CD40599E4
:104B9000B94201DB019900E00191012904DD159A78
:104BA000491E515C302906D0B84201DA011D05DAF0
:104BB0000121029115E00199491EEDE7002805DC6D
:104BC0000099411800910199091A03E0019A411CCA
:104BD000914200DD01910099401A401C0290012091
:104BE000C0070390200706D402990198814202DB96
:104BF0000020C043029000206946C87707AF01211A
:104C000003980337C907884224D0022011902B2033
:104C10001290039800280CDA404203902D20129045
:104C200007E00A210398FBF765FA30317F1E0390F5
:104C300039701199481E11900029F2DC0398002860
:104C4000EFD1791E12980870307820210840453045
:104C5000BF1E387006A8C01BC01D039010980078B6
:104C6000002800D00120019941180298C0170918A6
:104C7000039809180498401A401E0490E00306D4D3
:104C800021461A9B199A049800F05EF8451910986D
:104C90000078002803D01A9A199990476D1CE003F8
:104CA00024D521461A9B199A049800F04DF845190D
:104CB0001CE00098002807DB00990598884203DD76
:104CC0001598405C199901E0199930201A9A90477B
:104CD00000986D1C401C00900298401E0290002815
:104CE00004D11A9A2E20199990476D1C0199481EDB
:104CF00001900029DDDC05E038781A9A7F1C1999AB
:104D000090476D1C0399481E03900029F4DC21464E
:104D10001A9B199A0498ACE62D0000002B000000A5
:104D20002000000000000000F8B5044600251E46E3
:104D30001746880404D405E039462020B0476D1C8E
:104D4000641EF9D52846F8BDFFB50446002581B09C
:104D50001E46C80301D5302700E02027880404D56B
:104D600005E038460399B0476D1C641EF9D5284606
:104D700005B0F0BD13B50C46034B0122694603484C
:104D8000FEF7A8FA00981CBDFFFF0000D401002028
:104D900086B000210291039100910191FDF79EF8E8
:104DA000FEF769FFFEF772FDFEF74EFDFEF7F2FC1F
:104DB000FEF76EFEFEF78AFDFEF730FEFEF7B4FD4D
:104DC000FEF7F2FD16A0FFF703FBFEF7FFFA0490D3
:104DD0006946087C002804D019A0FFF7F9FA00BF43
:104DE000FEE71FA0FFF7F4FA19E024480078002836
:104DF00000D114E000202149087002A96846FEF79E
:104E00006DFE0446FBF785FB0391029000221346DA
:104E100003990298FBF792FB00D100E000BFE4E7A2
:104E20005B4F4B5D20E7B3BBE7BB9FE5889DE5A7E4
:104E30008BE58C96E68890E58A9F210D0A0000009C
:104E40005B4552524F525D20534D55E5889DE5A775
:104E50008BE58C96E5A4B1E8B4A5210D0A0000000D
:104E60005B4F4B5D20534D55E5889DE5A78BE58C49
:104E700096E68890E58A9F210D0A00000000002038
:104E8000081C30445800010002000400060008001D
:104E90000A000C0010002000400080000001081CE7
:104EA000304458010101030701000008040204080E
:104EB00001010100081C30445800000000000000FF
:104EC00000000000000000000000000000000000E2
:104ED00000000000000000000000000001000000D1
:104EE00002000000030000000400000006000000B3
:104EF000070000000800000009000000000000009A
:104F000000000000000000000000000001000000A0
:104F10000200000003000000040000005B4F4B5D36
:104F200020E8AFBBE58F96E69A97E58589E4B88BD4
:104F3000E79A84E794B5E58E8BE5AE8CE68890EF32
:104F4000BC8CE69A97E58589E4B88BE79A84E79468
:104F5000B5E58E8BE4B8BA3A252E346656207C200F
:104F600030782558210D0A00E5BFABE997A8E689FE
:104F700093E5BC80E58589E5BCBAE7A7AFE58886FF
:104F80003A202567EFBC8CE68993E5BC80E697B6AE
:104F9000E997B4E8AEA1E695B0E4B8BA3A20256C3A
:104FA0006C75EFBC8CE68993E5BC80E697B6E99713
:104FB000B43A20256C6C756D730D0A00DC4F000847
:104FC00000000020280000009E4400080450000853
:104FD00028000020901D0000AE44000800000000E2
:104FE0000000000004000000010000000024F400A4
:104FF00000000000000000000000000000000000B1
:0450000000000000AC
:04000005080000C12E
:00000001FF
